{
  "abi": [
    {
      "inputs": [
        {
          "internalType": "address",
          "name": "_resolver",
          "type": "address"
        },
        {
          "internalType": "address payable",
          "name": "_beneficiary",
          "type": "address"
        },
        {
          "internalType": "address",
          "name": "_admin",
          "type": "address"
        }
      ],
      "stateMutability": "nonpayable",
      "type": "constructor"
    },
    {
      "anonymous": false,
      "inputs": [
        {
          "indexed": true,
          "internalType": "uint256",
          "name": "lendingId",
          "type": "uint256"
        },
        {
          "indexed": false,
          "internalType": "uint32",
          "name": "claimedAt",
          "type": "uint32"
        }
      ],
      "name": "CollateralClaimed",
      "type": "event"
    },
    {
      "anonymous": false,
      "inputs": [
        {
          "indexed": true,
          "internalType": "uint256",
          "name": "lendingId",
          "type": "uint256"
        },
        {
          "indexed": false,
          "internalType": "uint32",
          "name": "stoppedAt",
          "type": "uint32"
        }
      ],
      "name": "LendingStopped",
      "type": "event"
    },
    {
      "anonymous": false,
      "inputs": [
        {
          "indexed": true,
          "internalType": "address",
          "name": "nftAddress",
          "type": "address"
        },
        {
          "indexed": true,
          "internalType": "uint256",
          "name": "tokenId",
          "type": "uint256"
        },
        {
          "indexed": false,
          "internalType": "uint8",
          "name": "lentAmount",
          "type": "uint8"
        },
        {
          "indexed": false,
          "internalType": "uint256",
          "name": "lendingId",
          "type": "uint256"
        },
        {
          "indexed": true,
          "internalType": "address",
          "name": "lenderAddress",
          "type": "address"
        },
        {
          "indexed": false,
          "internalType": "uint8",
          "name": "maxRentDuration",
          "type": "uint8"
        },
        {
          "indexed": false,
          "internalType": "bytes4",
          "name": "dailyRentPrice",
          "type": "bytes4"
        },
        {
          "indexed": false,
          "internalType": "bytes4",
          "name": "nftPrice",
          "type": "bytes4"
        },
        {
          "indexed": false,
          "internalType": "bool",
          "name": "isERC721",
          "type": "bool"
        },
        {
          "indexed": false,
          "internalType": "enum IResolver.PaymentToken",
          "name": "paymentToken",
          "type": "uint8"
        }
      ],
      "name": "Lent",
      "type": "event"
    },
    {
      "anonymous": false,
      "inputs": [
        {
          "indexed": false,
          "internalType": "uint256",
          "name": "lendingId",
          "type": "uint256"
        },
        {
          "indexed": true,
          "internalType": "address",
          "name": "renterAddress",
          "type": "address"
        },
        {
          "indexed": false,
          "internalType": "uint8",
          "name": "rentDuration",
          "type": "uint8"
        },
        {
          "indexed": false,
          "internalType": "uint32",
          "name": "rentedAt",
          "type": "uint32"
        }
      ],
      "name": "Rented",
      "type": "event"
    },
    {
      "anonymous": false,
      "inputs": [
        {
          "indexed": true,
          "internalType": "uint256",
          "name": "lendingId",
          "type": "uint256"
        },
        {
          "indexed": false,
          "internalType": "uint32",
          "name": "returnedAt",
          "type": "uint32"
        }
      ],
      "name": "Returned",
      "type": "event"
    },
    {
      "inputs": [
        {
          "internalType": "address[]",
          "name": "_nfts",
          "type": "address[]"
        },
        {
          "internalType": "uint256[]",
          "name": "_tokenIds",
          "type": "uint256[]"
        },
        {
          "internalType": "uint256[]",
          "name": "_lendingIds",
          "type": "uint256[]"
        }
      ],
      "name": "claimCollateral",
      "outputs": [],
      "stateMutability": "nonpayable",
      "type": "function"
    },
    {
      "inputs": [
        {
          "internalType": "address[]",
          "name": "_nfts",
          "type": "address[]"
        },
        {
          "internalType": "uint256[]",
          "name": "_tokenIds",
          "type": "uint256[]"
        },
        {
          "internalType": "uint256[]",
          "name": "_lendAmounts",
          "type": "uint256[]"
        },
        {
          "internalType": "uint8[]",
          "name": "_maxRentDurations",
          "type": "uint8[]"
        },
        {
          "internalType": "bytes4[]",
          "name": "_dailyRentPrices",
          "type": "bytes4[]"
        },
        {
          "internalType": "bytes4[]",
          "name": "_nftPrices",
          "type": "bytes4[]"
        },
        {
          "internalType": "enum IResolver.PaymentToken[]",
          "name": "_paymentTokens",
          "type": "uint8[]"
        }
      ],
      "name": "lend",
      "outputs": [],
      "stateMutability": "nonpayable",
      "type": "function"
    },
    {
      "inputs": [
        {
          "internalType": "address",
          "name": "",
          "type": "address"
        },
        {
          "internalType": "address",
          "name": "",
          "type": "address"
        },
        {
          "internalType": "uint256[]",
          "name": "",
          "type": "uint256[]"
        },
        {
          "internalType": "uint256[]",
          "name": "",
          "type": "uint256[]"
        },
        {
          "internalType": "bytes",
          "name": "",
          "type": "bytes"
        }
      ],
      "name": "onERC1155BatchReceived",
      "outputs": [
        {
          "internalType": "bytes4",
          "name": "",
          "type": "bytes4"
        }
      ],
      "stateMutability": "nonpayable",
      "type": "function"
    },
    {
      "inputs": [
        {
          "internalType": "address",
          "name": "",
          "type": "address"
        },
        {
          "internalType": "address",
          "name": "",
          "type": "address"
        },
        {
          "internalType": "uint256",
          "name": "",
          "type": "uint256"
        },
        {
          "internalType": "uint256",
          "name": "",
          "type": "uint256"
        },
        {
          "internalType": "bytes",
          "name": "",
          "type": "bytes"
        }
      ],
      "name": "onERC1155Received",
      "outputs": [
        {
          "internalType": "bytes4",
          "name": "",
          "type": "bytes4"
        }
      ],
      "stateMutability": "nonpayable",
      "type": "function"
    },
    {
      "inputs": [
        {
          "internalType": "address",
          "name": "",
          "type": "address"
        },
        {
          "internalType": "address",
          "name": "",
          "type": "address"
        },
        {
          "internalType": "uint256",
          "name": "",
          "type": "uint256"
        },
        {
          "internalType": "bytes",
          "name": "",
          "type": "bytes"
        }
      ],
      "name": "onERC721Received",
      "outputs": [
        {
          "internalType": "bytes4",
          "name": "",
          "type": "bytes4"
        }
      ],
      "stateMutability": "nonpayable",
      "type": "function"
    },
    {
      "inputs": [],
      "name": "paused",
      "outputs": [
        {
          "internalType": "bool",
          "name": "",
          "type": "bool"
        }
      ],
      "stateMutability": "view",
      "type": "function"
    },
    {
      "inputs": [
        {
          "internalType": "address[]",
          "name": "_nfts",
          "type": "address[]"
        },
        {
          "internalType": "uint256[]",
          "name": "_tokenIds",
          "type": "uint256[]"
        },
        {
          "internalType": "uint256[]",
          "name": "_lendingIds",
          "type": "uint256[]"
        },
        {
          "internalType": "uint8[]",
          "name": "_rentDurations",
          "type": "uint8[]"
        }
      ],
      "name": "rent",
      "outputs": [],
      "stateMutability": "nonpayable",
      "type": "function"
    },
    {
      "inputs": [],
      "name": "rentFee",
      "outputs": [
        {
          "internalType": "uint256",
          "name": "",
          "type": "uint256"
        }
      ],
      "stateMutability": "view",
      "type": "function"
    },
    {
      "inputs": [
        {
          "internalType": "address[]",
          "name": "_nfts",
          "type": "address[]"
        },
        {
          "internalType": "uint256[]",
          "name": "_tokenIds",
          "type": "uint256[]"
        },
        {
          "internalType": "uint256[]",
          "name": "_lendingIds",
          "type": "uint256[]"
        }
      ],
      "name": "returnIt",
      "outputs": [],
      "stateMutability": "nonpayable",
      "type": "function"
    },
    {
      "inputs": [
        {
          "internalType": "address payable",
          "name": "_newBeneficiary",
          "type": "address"
        }
      ],
      "name": "setBeneficiary",
      "outputs": [],
      "stateMutability": "nonpayable",
      "type": "function"
    },
    {
      "inputs": [
        {
          "internalType": "bool",
          "name": "_paused",
          "type": "bool"
        }
      ],
      "name": "setPaused",
      "outputs": [],
      "stateMutability": "nonpayable",
      "type": "function"
    },
    {
      "inputs": [
        {
          "internalType": "uint256",
          "name": "_rentFee",
          "type": "uint256"
        }
      ],
      "name": "setRentFee",
      "outputs": [],
      "stateMutability": "nonpayable",
      "type": "function"
    },
    {
      "inputs": [
        {
          "internalType": "address[]",
          "name": "_nfts",
          "type": "address[]"
        },
        {
          "internalType": "uint256[]",
          "name": "_tokenIds",
          "type": "uint256[]"
        },
        {
          "internalType": "uint256[]",
          "name": "_lendingIds",
          "type": "uint256[]"
        }
      ],
      "name": "stopLending",
      "outputs": [],
      "stateMutability": "nonpayable",
      "type": "function"
    },
    {
      "inputs": [
        {
          "internalType": "bytes4",
          "name": "interfaceId",
          "type": "bytes4"
        }
      ],
      "name": "supportsInterface",
      "outputs": [
        {
          "internalType": "bool",
          "name": "",
          "type": "bool"
        }
      ],
      "stateMutability": "view",
      "type": "function"
    }
  ],
  "bytecode": {
    "object": "0x608060405260016003556004805460ff1916905560006005553480156200002557600080fd5b506040516200421d3803806200421d833981016040819052620000489162000120565b6200005383620000ac565b6200005e82620000ac565b6200006981620000ac565b600080546001600160a01b039485166001600160a01b03199182161790915560028054938516938216939093179092556001805491909316911617905562000174565b6001600160a01b038116620001075760405162461bcd60e51b815260206004820152601360248201527f52654e46543a3a7a65726f206164647265737300000000000000000000000000604482015260640160405180910390fd5b50565b6001600160a01b03811681146200010757600080fd5b6000806000606084860312156200013657600080fd5b835162000143816200010a565b602085015190935062000156816200010a565b604085015190925062000169816200010a565b809150509250925092565b61409980620001846000396000f3fe608060405234801561001057600080fd5b50600436106100ea5760003560e01c80635de07ca31161008c578063bf2b23ea11610066578063bf2b23ea146101ee578063e50364b214610205578063f23a6e6114610218578063fb1585191461023757600080fd5b80635de07ca3146101a957806376774ea3146101bc578063bc197c81146101cf57600080fd5b806316c38b3c116100c857806316c38b3c146101635780631c31f7101461017657806359fe66e4146101895780635c975abb1461019c57600080fd5b806301ffc9a7146100ef578063098130df14610117578063150b7a021461012c575b600080fd5b6101026100fd366004613467565b61024a565b60405190151581526020015b60405180910390f35b61012a6101253660046135cf565b610281565b005b61014a61013a3660046136c5565b630a85bd0160e11b949350505050565b6040516001600160e01b0319909116815260200161010e565b61012a61017136600461373e565b6102c8565b61012a61018436600461375b565b610305565b61012a6101973660046135cf565b610351565b6004546101029060ff1681565b61012a6101b73660046137eb565b610385565b61012a6101ca36600461388b565b6103c0565b61014a6101dd3660046138a4565b63bc197c8160e01b95945050505050565b6101f760055481565b60405190815260200161010e565b61012a610213366004613a1c565b610440565b61014a610226366004613b36565b63f23a6e6160e01b95945050505050565b61012a6102453660046135cf565b610481565b60006001600160e01b03198216630271189760e51b148061027b57506301ffc9a760e01b6001600160e01b03198316145b92915050565b60045460ff16156102ad5760405162461bcd60e51b81526004016102a490613b9e565b60405180910390fd5b6102c36104b56102be858585610844565b610980565b505050565b6001546001600160a01b031633146102f25760405162461bcd60e51b81526004016102a490613bc5565b6004805460ff1916911515919091179055565b6001546001600160a01b0316331461032f5760405162461bcd60e51b81526004016102a490613bc5565b600280546001600160a01b0319166001600160a01b0392909216919091179055565b60045460ff16156103745760405162461bcd60e51b81526004016102a490613b9e565b6102c3610aa86102be858585610844565b60045460ff16156103a85760405162461bcd60e51b81526004016102a490613b9e565b6103ba610dfa6102be868686866113cd565b50505050565b6001546001600160a01b031633146103ea5760405162461bcd60e51b81526004016102a490613bc5565b612710811061043b5760405162461bcd60e51b815260206004820152601960248201527f52654e46543a3a6665652065786365656473203130307063740000000000000060448201526064016102a4565b600555565b60045460ff16156104635760405162461bcd60e51b81526004016102a490613b9e565b61047861151b6102be89898989898989611a38565b50505050505050565b60045460ff16156104a45760405162461bcd60e51b81526004016102a490613b9e565b6102c3611b066102be858585610844565b805160208201516000916104c891613c05565b6001600160401b038111156104df576104df613482565b604051908082528060200260200182016040528015610508578160200160208202803683370190505b5082519091505b826020015181101561080857600060066000856040015186600001518151811061053b5761053b613c18565b60200260200101518660600151858151811061055957610559613c18565b6020026020010151876101000151868151811061057857610578613c18565b602002602001015160405160200161059293929190613c2e565b60408051601f198184030181529181528151602092830120835282820193909352908201600020825160c08101845281546001600160a01b038116825260ff600160a01b82048116948301949094526001600160e01b0319600160a81b820460e090811b821696840196909652600160c81b820490951b9094166060820152600160e81b840483166080820152909350610662929091849160a0840191600160f01b90910416600681111561064957610649613c58565b600681111561065a5761065a613c58565b905250611dec565b6040805160608101825260018301546001600160a01b0381168252600160a01b810460ff166020830152600160a81b900463ffffffff16918101919091526106a990611ea1565b6040805160c08101825282546001600160a01b038116825260ff600160a01b8204811660208401526001600160e01b0319600160a81b830460e090811b821695850195909552600160c81b830490941b9093166060830152600160e81b81048316608083015261074e92849160a0840191600160f01b90910416600681111561073457610734613c58565b600681111561074557610745613c58565b90525033611f54565b80548451600160e81b90910460ff1690849061076a9085613c05565b8151811061077a5761077a613c18565b602002602001018181525050836101000151828151811061079d5761079d613c18565b60200260200101517f61bcecd87c002ae006d9d8c760291b4f3646fa6109590b4b3ea93084aae4bb6a426040516107e0919063ffffffff91909116815260200190565b60405180910390a280546001600160f81b03191690558061080081613c6e565b91505061050f565b506108408230336108288660600151876000015188602001516000611fad565b8651602088015161083b91889181611fad565b61206c565b5050565b61084c6133f0565b604051806101600160405280600081526020016001815260200185815260200184815260200160006001600160401b0381111561088b5761088b613482565b6040519080825280602002602001820160405280156108b4578160200160208202803683370190505b50815260200160006040519080825280602002602001820160405280156108e5578160200160208202803683370190505b5081526020016000604051908082528060200260200182016040528015610916578160200160208202803683370190505b5081526020016000604051908082528060200260200182016040528015610947578160200160208202803683370190505b50815260208082019490945260408051600080825281870183528284019190915281519081529485019052606001929092525092915050565b6000816040015151116109c65760405162461bcd60e51b815260206004820152600e60248201526d52654e46543a3a6e6f206e66747360901b60448201526064016102a4565b806040015151816020015114610a9b5780604001518160200151815181106109f0576109f0613c18565b60200260200101516001600160a01b03168160400151826000015181518110610a1b57610a1b613c18565b60200260200101516001600160a01b0316148015610a5e5750610a5e8160400151826020015181518110610a5157610a51613c18565b6020026020010151612210565b15610a7b5760208101805190610a7382613c6e565b9052506109c6565b610a88818363ffffffff16565b60208101805180835290610a7382613c6e565b610840818363ffffffff16565b80515b8160200151811015610840576000600660008460400151856000015181518110610ad757610ad7613c18565b602002602001015185606001518581518110610af557610af5613c18565b60200260200101518661010001518681518110610b1457610b14613c18565b6020026020010151604051602001610b2e93929190613c2e565b60408051601f198184030181529181528151602092830120835282820193909352908201600020825160c08101845281546001600160a01b038116825260ff600160a01b82048116948301949094526001600160e01b0319600160a81b820460e090811b821696840196909652600160c81b820490951b9094166060820152600160e81b840483166080820152909350610be5929091849160a0840191600160f01b90910416600681111561064957610649613c58565b6040805160608101825260018301546001600160a01b0381168252600160a01b810460ff166020830152600160a81b900463ffffffff1691810191909152610c2c90612283565b6040805160608101825260018301546001600160a01b0381168252600160a01b810460ff166020830152600160a81b900463ffffffff1691810191909152610c74904261230f565b604080516101008101825282546001600160a01b03811692820192835260ff600160a01b8204811660608401526001600160e01b0319600160a81b830460e090811b82166080860152600160c81b8404811b90911660a0850152600160e81b8304821660c0850152610d6794869385939192859290850191600160f01b9004166006811115610d0557610d05613c58565b6006811115610d1657610d16613c58565b905250815260408051606081018252600193909301546001600160a01b0381168452600160a01b810460ff16602080860191909152600160a81b90910463ffffffff16918401919091520152612365565b8261010001518281518110610d7e57610d7e613c18565b60200260200101517f8ac1440f996b8b13e31275705c447bd09a92005cf2ec131a8183afedc636f5a242604051610dc1919063ffffffff91909116815260200190565b60405180910390a280546001600160f81b031916815560010180546001600160c81b031916905580610df281613c6e565b915050610aab565b80516020820151600091610e0d91613c05565b6001600160401b03811115610e2457610e24613482565b604051908082528060200260200182016040528015610e4d578160200160208202803683370190505b5082519091505b8260200151811015610808576000600660008560400151866000015181518110610e8057610e80613c18565b602002602001015186606001518581518110610e9e57610e9e613c18565b60200260200101518761010001518681518110610ebd57610ebd613c18565b6020026020010151604051602001610ed793929190613c2e565b60408051601f198184030181529181528151602092830120835282820193909352908201600020825160c08101845281546001600160a01b038116825260ff600160a01b82048116948301949094526001600160e01b0319600160a81b820460e090811b821696840196909652600160c81b820490951b9094166060820152600160e81b840483166080820152909350610f8e929091849160a0840191600160f01b90910416600681111561064957610649613c58565b6040805160608101825260018301546001600160a01b0381168252600160a01b810460ff166020830152600160a81b900463ffffffff1691810191909152610fd590611ea1565b6040805160c08101825282546001600160a01b038116825260ff600160a01b8204811660208401526001600160e01b0319600160a81b830460e090811b821695850195909552600160c81b830490941b9093166060830152600160e81b81048316608083015261107c92849160a0840191600160f01b90910416600681111561106057611060613c58565b600681111561107157611071613c58565b905250858433612588565b8054600090600160f01b900460ff16600681111561109c5761109c613c58565b90506110a7816126fb565b6000805460405163c6ee427f60e01b815260ff841660048201526001600160a01b039091169063c6ee427f90602401602060405180830381865afa1580156110f3573d6000803e3d6000fd5b505050506040513d601f19601f820116820180604052508101906111179190613c87565b90506000816001600160a01b031663313ce5676040518163ffffffff1660e01b8152600401602060405180830381865afa158015611159573d6000803e3d6000fd5b505050506040513d601f19601f8201168201806040525081019061117d9190613ca4565b60ff169050600061118f82600a613da5565b85549091506000906111ab90600160a81b900460e01b8361274e565b89610120015188815181106111c2576111c2613c18565b602002602001015160ff166111d79190613db1565b86549091506000906111f390600160c81b900460e01b8461274e565b87546112099190600160e81b900460ff16613db1565b90506000821161122b5760405162461bcd60e51b81526004016102a490613dd0565b6000811161124b5760405162461bcd60e51b81526004016102a490613e07565b61126c333061125a8486613e3e565b6001600160a01b0389169291906127dd565b505084548851600160e81b90910460ff169150879061128b9088613c05565b8151811061129b5761129b613c18565b60209081029190910101526001840180546001600160a01b031916331790556101208701518051869081106112d2576112d2613c18565b602090810291909101015160018501805464ffffffffff60a01b1916600160a01b60ff9093169290920263ffffffff60a81b191691909117600160a81b4263ffffffff1602179055610100870151805133917f3140d73adcc923e4a0de3b1522aeec546a872bcdc06a3e25fe1209df30b954ec918890811061135657611356613c18565b6020026020010151896101200151888151811061137557611375613c18565b60209081029190910181015160018901546040805194855260ff90921692840192909252600160a81b90910463ffffffff169082015260600160405180910390a25050505080806113c590613c6e565b915050610e54565b6113d56133f0565b604051806101600160405280600081526020016001815260200186815260200185815260200160006001600160401b0381111561141457611414613482565b60405190808252806020026020018201604052801561143d578160200160208202803683370190505b508152602001600060405190808252806020026020018201604052801561146e578160200160208202803683370190505b508152602001600060405190808252806020026020018201604052801561149f578160200160208202803683370190505b50815260200160006040519080825280602002602001820160405280156114d0578160200160208202803683370190505b5081526020810185905260408101849052606001600060405190808252806020026020018201604052801561150f578160200160208202803683370190505b50905295945050505050565b80515b81602001518110156119fc576115348282612848565b600060066000846040015185600001518151811061155457611554613c18565b60200260200101518560600151858151811061157257611572613c18565b602002602001015160035460405160200161158f93929190613c2e565b60408051601f198184030181529181528151602092830120835282820193909352908201600020825160c08101845281546001600160a01b038116825260ff600160a01b82048116948301949094526001600160e01b0319600160a81b820460e090811b821696840196909652600160c81b820490951b9094166060820152600160e81b84048316608082015290935061165f929091849160a0840191600160f01b90910416600681111561164657611646613c58565b600681111561165757611657613c58565b905250612a04565b6040805160608101825260018301546001600160a01b0381168252600160a01b810460ff166020830152600160a81b900463ffffffff16918101919091526116a690611ea1565b60006116ce846040015184815181106116c1576116c1613c18565b6020026020010151612b17565b90506040518060c00160405280336001600160a01b031681526020018560a00151858151811061170057611700613c18565b602002602001015160ff1681526020018560c00151858151811061172657611726613c18565b60200260200101516001600160e01b03191681526020018560e00151858151811061175357611753613c18565b60200260200101516001600160e01b031916815260200182611792578560800151858151811061178557611785613c18565b6020026020010151611795565b60015b60ff16815260200185610140015185815181106117b4576117b4613c18565b602002602001015160068111156117cd576117cd613c58565b90528051835460208301516040840151606085015160808601516001600160a01b039095166001600160a81b031990941693909317600160a01b60ff938416021767ffffffffffffffff60a81b1916600160a81b60e092831c0263ffffffff60c81b191617600160c81b9390911c929092029190911760ff60e81b198116600160e81b9290931691909102918217855560a083015185929091839161ffff60e81b1990911660ff60f01b1990911617600160f01b83600681111561189357611893613c58565b0217905550905050336001600160a01b0316846060015184815181106118bb576118bb613c18565b602002602001015185604001518660000151815181106118dd576118dd613c18565b60200260200101516001600160a01b03167fc1b2f77226541f6b308379a3110d77af45464d9a161a6eb4b6cfdcd0fb2089c684611937578760800151878151811061192a5761192a613c18565b602002602001015161193a565b60015b6003548960a00151898151811061195357611953613c18565b60200260200101518a60c001518a8151811061197157611971613c18565b60200260200101518b60e001518b8151811061198f5761198f613c18565b6020026020010151898d61014001518d815181106119af576119af613c18565b60200260200101516040516119ca9796959493929190613e51565b60405180910390a4600380549060006119e283613c6e565b9190505550505080806119f490613c6e565b91505061151e565b50611a35813330611a1c8560600151866000015187602001516000611fad565b61083b8660800151876000015188602001516000611fad565b50565b611a406133f0565b604051806101600160405280600081526020016001815260200189815260200188815260200187815260200186815260200185815260200184815260200160006001600160401b03811115611a9757611a97613482565b604051908082528060200260200182016040528015611ac0578160200160208202803683370190505b5081526020016000604051908082528060200260200182016040528015611af1578160200160208202803683370190505b50815260200192909252509695505050505050565b80516020820151600091611b1991613c05565b6001600160401b03811115611b3057611b30613482565b604051908082528060200260200182016040528015611b59578160200160208202803683370190505b5082519091505b8260200151811015611dcc576000600660008560400151866000015181518110611b8c57611b8c613c18565b602002602001015186606001518581518110611baa57611baa613c18565b60200260200101518761010001518681518110611bc957611bc9613c18565b6020026020010151604051602001611be393929190613c2e565b60408051601f198184030181529181528151602092830120835282820193909352908201600020825160c08101845281546001600160a01b038116825260ff600160a01b82048116948301949094526001600160e01b0319600160a81b820460e090811b821696840196909652600160c81b820490951b9094166060820152600160e81b840483166080820152909350611c9a929091849160a0840191600160f01b90910416600681111561064957610649613c58565b6040805160608101825260018301546001600160a01b0381168252600160a01b810460ff166020830152600160a81b900463ffffffff1691810191909152611ce3903342612b4d565b6001810154600090611d0290600160a81b900463ffffffff1642613c05565b9050611d0e8282612bfd565b81548551600160e81b90910460ff16908590611d2a9086613c05565b81518110611d3a57611d3a613c18565b6020026020010181815250508461010001518381518110611d5d57611d5d613c18565b60200260200101517f289da9cb3ecd362ad5ae230d4daa346e68abbd8972cd9c01df54b7b1b97ab15b42604051611da0919063ffffffff91909116815260200190565b60405180910390a25060010180546001600160c81b031916905580611dc481613c6e565b915050611b60565b506108408233306108288660600151876000015188602001516000611fad565b8051611df790612ed5565b806020015160ff16600003611e455760405162461bcd60e51b815260206004820152601460248201527352654e46543a3a6475726174696f6e207a65726f60601b60448201526064016102a4565b60408101516001600160e01b031916600003611e735760405162461bcd60e51b81526004016102a490613dd0565b60608101516001600160e01b031916600003611a355760405162461bcd60e51b81526004016102a490613e07565b8051611eac90612f21565b602081015160ff1615611efc5760405162461bcd60e51b815260206004820152601860248201527752654e46543a3a6475726174696f6e206e6f74207a65726f60401b60448201526064016102a4565b604081015163ffffffff1615611a355760405162461bcd60e51b815260206004820152601960248201527f52654e46543a3a72656e746564206174206e6f74207a65726f0000000000000060448201526064016102a4565b806001600160a01b031682600001516001600160a01b0316146108405760405162461bcd60e51b81526020600482015260116024820152702932a7232a1d1d3737ba103632b73232b960791b60448201526064016102a4565b6060611fb98484613c05565b6001600160401b03811115611fd057611fd0613482565b604051908082528060200260200182016040528015611ff9578160200160208202803683370190505b509050835b8381101561206357856120118483613c05565b8151811061202157612021613c18565b60200260200101518286836120369190613c05565b8151811061204657612046613c18565b60209081029190910101528061205b81613c6e565b915050611ffe565b50949350505050565b61208985604001518660000151815181106116c1576116c1613c18565b1561214f5760408501518551815181106120a5576120a5613c18565b60200260200101516001600160a01b03166323b872dd858588606001518960000151815181106120d7576120d7613c18565b60209081029190910101516040516001600160e01b031960e086901b1681526001600160a01b03938416600482015292909116602483015260448201526064015b600060405180830381600087803b15801561213257600080fd5b505af1158015612146573d6000803e3d6000fd5b50505050612209565b61216c8560400151866000015181518110610a5157610a51613c18565b156121c157604085015185518151811061218857612188613c18565b60200260200101516001600160a01b0316632eb2c2d6858585856040518563ffffffff1660e01b81526004016121189493929190613ef5565b60405162461bcd60e51b815260206004820152601d60248201527f52654e46543a3a756e737570706f7274656420746f6b656e207479706500000060448201526064016102a4565b5050505050565b6040516301ffc9a760e01b8152636cdb3d1360e11b60048201526000906001600160a01b038316906301ffc9a7906024015b602060405180830381865afa15801561225f573d6000803e3d6000fd5b505050506040513d601f19601f8201168201806040525081019061027b9190613f50565b805161228e90612ed5565b806020015160ff166000036122b55760405162461bcd60e51b81526004016102a490613f6d565b806040015163ffffffff16600003611a355760405162461bcd60e51b815260206004820152601860248201527f52654e46543a3a72656e746564206174206973207a65726f000000000000000060448201526064016102a4565b6123198282612f78565b6108405760405162461bcd60e51b815260206004820152601d60248201527f52654e46543a3a72657475726e2064617465206e6f742070617373656400000060448201526064016102a4565b805160a00151600090600681111561237f5761237f613c58565b905061238a816126fb565b6000805460405163c6ee427f60e01b815260ff841660048201526001600160a01b039091169063c6ee427f90602401602060405180830381865afa1580156123d6573d6000803e3d6000fd5b505050506040513d601f19601f820116820180604052508101906123fa9190613c87565b90506000816001600160a01b031663313ce5676040518163ffffffff1660e01b8152600401602060405180830381865afa15801561243c573d6000803e3d6000fd5b505050506040513d601f19601f820116820180604052508101906124609190613ca4565b60ff169050600061247282600a613da5565b905060006124888660000151606001518361274e565b86516080015161249b919060ff16613db1565b905060006124b18760000151604001518461274e565b9050600087602001516020015160ff16826124cc9190613db1565b905060006124ee828960ff1660068111156124e9576124e9613c58565b613006565b905060006124fc8584613e3e565b90506000831161255a5760405162461bcd60e51b815260206004820152602360248201527f52654e46543a3a636f6c6c61746572616c20706c75732072656e74206973207a60448201526265726f60e81b60648201526084016102a4565b89515161257c9061256b8484613c05565b6001600160a01b038b1691906130da565b50505050505050505050565b83600001516001600160a01b0316816001600160a01b0316036125ed5760405162461bcd60e51b815260206004820152601860248201527f52654e46543a3a63616e742072656e74206f776e206e6674000000000000000060448201526064016102a4565b60ff8016836101200151838151811061260857612608613c18565b602002602001015160ff1611156126315760405162461bcd60e51b81526004016102a490613fa4565b6000836101200151838151811061264a5761264a613c18565b602002602001015160ff16116126725760405162461bcd60e51b81526004016102a490613f6d565b836020015160ff16836101200151838151811061269157612691613c18565b602002602001015160ff1611156103ba5760405162461bcd60e51b815260206004820152602860248201527f52654e46543a3a72656e74206475726174696f6e206578636565647320616c6c6044820152670deeecac840dac2f60c31b60648201526084016102a4565b60008160ff1611611a355760405162461bcd60e51b815260206004820152601860248201527f52654e46543a3a746f6b656e2069732073656e74696e656c000000000000000060448201526064016102a4565b600061275a838361310a565b60f083901c61ffff60e085901c16600061277661271086613fce565b905061270f8361ffff16111561278c5761270f92505b61270f8261ffff1611156127a05761270f91505b60006127b08661ffff8616613db1565b905060006127c28361ffff8616613db1565b905060006127d08284613e3e565b9998505050505050505050565b6040516001600160a01b03808516602483015283166044820152606481018290526103ba9085906323b872dd60e01b906084015b60408051601f198184030181529190526020810180516001600160e01b03166001600160e01b03199093169290921790915261319b565b60008260800151828151811061286057612860613c18565b6020026020010151116128b55760405162461bcd60e51b815260206004820152601a60248201527f52654e46543a3a6c656e6420616d6f756e74206973207a65726f00000000000060448201526064016102a4565b60ff8016826080015182815181106128cf576128cf613c18565b602002602001015111156128f55760405162461bcd60e51b81526004016102a490613fa4565b60008260a00151828151811061290d5761290d613c18565b602002602001015160ff16116129355760405162461bcd60e51b81526004016102a490613f6d565b60ff80168260a00151828151811061294f5761294f613c18565b602002602001015160ff1611156129785760405162461bcd60e51b81526004016102a490613fa4565b60008260c00151828151811061299057612990613c18565b602002602001015160e01c63ffffffff16116129be5760405162461bcd60e51b81526004016102a490613dd0565b60008260e0015182815181106129d6576129d6613c18565b602002602001015160e01c63ffffffff16116108405760405162461bcd60e51b81526004016102a490613e07565b8051612a0f90612f21565b602081015160ff1615612a5f5760405162461bcd60e51b815260206004820152601860248201527752654e46543a3a6475726174696f6e206e6f74207a65726f60401b60448201526064016102a4565b60408101516001600160e01b03191615612abb5760405162461bcd60e51b815260206004820152601a60248201527f52654e46543a3a72656e74207072696365206e6f74207a65726f00000000000060448201526064016102a4565b60608101516001600160e01b03191615611a355760405162461bcd60e51b815260206004820152601960248201527f52654e46543a3a6e6674207072696365206e6f74207a65726f0000000000000060448201526064016102a4565b6040516301ffc9a760e01b81526380ac58cd60e01b60048201526000906001600160a01b038316906301ffc9a790602401612242565b816001600160a01b031683600001516001600160a01b031614612ba65760405162461bcd60e51b81526020600482015260116024820152702932a7232a1d1d3737ba103932b73a32b960791b60448201526064016102a4565b612bb08382612f78565b156102c35760405162461bcd60e51b815260206004820152601760248201527f52654e46543a3a706173742072657475726e206461746500000000000000000060448201526064016102a4565b8154600090600160f01b900460ff166006811115612c1d57612c1d613c58565b9050612c28816126fb565b6000805460405163c6ee427f60e01b815260ff841660048201526001600160a01b039091169063c6ee427f90602401602060405180830381865afa158015612c74573d6000803e3d6000fd5b505050506040513d601f19601f82011682018060405250810190612c989190613c87565b90506000816001600160a01b031663313ce5676040518163ffffffff1660e01b8152600401602060405180830381865afa158015612cda573d6000803e3d6000fd5b505050506040513d601f19601f82011682018060405250810190612cfe9190613ca4565b60ff1690506000612d1082600a613da5565b8654909150600090612d2c90600160c81b900460e01b8361274e565b8754612d429190600160e81b900460ff16613db1565b8754909150600090612d5e90600160a81b900460e01b8461274e565b6001890154909150600090612d7d90600160a01b900460ff1683613db1565b9050600062015180612d8f848b613db1565b612d999190613fce565b905060008211612dfe5760405162461bcd60e51b815260206004820152602a60248201527f52654e46543a3a746f74616c207061796d656e7420776f20636f6c6c61746572604482015269616c206973207a65726f60b01b60648201526084016102a4565b60008111612e4e5760405162461bcd60e51b815260206004820152601d60248201527f52654e46543a3a6c656e646572207061796d656e74206973207a65726f00000060448201526064016102a4565b6000612e5a8284613c05565b8b54909150600090612e77908490600160f01b900460ff16613006565b9050612e838184613c05565b9250612e8f8683613e3e565b8c54909250612eab906001600160a01b038b81169116856130da565b60018c0154612ec7906001600160a01b038b81169116846130da565b505050505050505050505050565b6001600160a01b038116611a355760405162461bcd60e51b815260206004820152601360248201527252654e46543a3a7a65726f206164647265737360681b60448201526064016102a4565b6001600160a01b03811615611a355760405162461bcd60e51b815260206004820152601960248201527f52654e46543a3a6e6f742061207a65726f20616464726573730000000000000060448201526064016102a4565b6000826040015163ffffffff168211612fd35760405162461bcd60e51b815260206004820152601860248201527f52654e46543a3a6e6f77206265666f72652072656e746564000000000000000060448201526064016102a4565b62015180836020015160ff16612fe99190613db1565b6040840151612ffe9063ffffffff1684613c05565b119392505050565b6000600554836130169190613db1565b905061302461271082613fce565b9050600082600681111561303a5761303a613c58565b9050613045816126fb565b6000805460405163c6ee427f60e01b815260ff841660048201526001600160a01b039091169063c6ee427f90602401602060405180830381865afa158015613091573d6000803e3d6000fd5b505050506040513d601f19601f820116820180604052508101906130b59190613c87565b6002549091506130d2906001600160a01b038084169116856130da565b505092915050565b6040516001600160a01b0383166024820152604481018290526102c390849063a9059cbb60e01b90606401612811565b60e082901c6131525760405162461bcd60e51b815260206004820152601460248201527352654e46543a3a696e76616c696420707269636560601b60448201526064016102a4565b6127108110156108405760405162461bcd60e51b815260206004820152601460248201527352654e46543a3a696e76616c6964207363616c6560601b60448201526064016102a4565b60006131f0826040518060400160405280602081526020017f5361666545524332303a206c6f772d6c6576656c2063616c6c206661696c6564815250856001600160a01b031661326d9092919063ffffffff16565b8051909150156102c3578080602001905181019061320e9190613f50565b6102c35760405162461bcd60e51b815260206004820152602a60248201527f5361666545524332303a204552433230206f7065726174696f6e20646964206e6044820152691bdd081cdd58d8d9595960b21b60648201526084016102a4565b606061327c8484600085613286565b90505b9392505050565b6060824710156132e75760405162461bcd60e51b815260206004820152602660248201527f416464726573733a20696e73756666696369656e742062616c616e636520666f6044820152651c8818d85b1b60d21b60648201526084016102a4565b6001600160a01b0385163b61333e5760405162461bcd60e51b815260206004820152601d60248201527f416464726573733a2063616c6c20746f206e6f6e2d636f6e747261637400000060448201526064016102a4565b600080866001600160a01b0316858760405161335a9190614014565b60006040518083038185875af1925050503d8060008114613397576040519150601f19603f3d011682016040523d82523d6000602084013e61339c565b606091505b50915091506133ac8282866133b7565b979650505050505050565b606083156133c657508161327f565b8251156133d65782518084602001fd5b8160405162461bcd60e51b81526004016102a49190614030565b60405180610160016040528060008152602001600081526020016060815260200160608152602001606081526020016060815260200160608152602001606081526020016060815260200160608152602001606081525090565b80356001600160e01b03198116811461346257600080fd5b919050565b60006020828403121561347957600080fd5b61327f8261344a565b634e487b7160e01b600052604160045260246000fd5b604051601f8201601f191681016001600160401b03811182821017156134c0576134c0613482565b604052919050565b60006001600160401b038211156134e1576134e1613482565b5060051b60200190565b6001600160a01b0381168114611a3557600080fd5b600082601f83011261351157600080fd5b81356020613526613521836134c8565b613498565b82815260059290921b8401810191818101908684111561354557600080fd5b8286015b8481101561356957803561355c816134eb565b8352918301918301613549565b509695505050505050565b600082601f83011261358557600080fd5b81356020613595613521836134c8565b82815260059290921b840181019181810190868411156135b457600080fd5b8286015b8481101561356957803583529183019183016135b8565b6000806000606084860312156135e457600080fd5b83356001600160401b03808211156135fb57600080fd5b61360787838801613500565b9450602086013591508082111561361d57600080fd5b61362987838801613574565b9350604086013591508082111561363f57600080fd5b5061364c86828701613574565b9150509250925092565b600082601f83011261366757600080fd5b81356001600160401b0381111561368057613680613482565b613693601f8201601f1916602001613498565b8181528460208386010111156136a857600080fd5b816020850160208301376000918101602001919091529392505050565b600080600080608085870312156136db57600080fd5b84356136e6816134eb565b935060208501356136f6816134eb565b92506040850135915060608501356001600160401b0381111561371857600080fd5b61372487828801613656565b91505092959194509250565b8015158114611a3557600080fd5b60006020828403121561375057600080fd5b813561327f81613730565b60006020828403121561376d57600080fd5b813561327f816134eb565b60ff81168114611a3557600080fd5b600082601f83011261379857600080fd5b813560206137a8613521836134c8565b82815260059290921b840181019181810190868411156137c757600080fd5b8286015b848110156135695780356137de81613778565b83529183019183016137cb565b6000806000806080858703121561380157600080fd5b84356001600160401b038082111561381857600080fd5b61382488838901613500565b9550602087013591508082111561383a57600080fd5b61384688838901613574565b9450604087013591508082111561385c57600080fd5b61386888838901613574565b9350606087013591508082111561387e57600080fd5b5061372487828801613787565b60006020828403121561389d57600080fd5b5035919050565b600080600080600060a086880312156138bc57600080fd5b85356138c7816134eb565b945060208601356138d7816134eb565b935060408601356001600160401b03808211156138f357600080fd5b6138ff89838a01613574565b9450606088013591508082111561391557600080fd5b61392189838a01613574565b9350608088013591508082111561393757600080fd5b5061394488828901613656565b9150509295509295909350565b600082601f83011261396257600080fd5b81356020613972613521836134c8565b82815260059290921b8401810191818101908684111561399157600080fd5b8286015b84811015613569576139a68161344a565b8352918301918301613995565b600082601f8301126139c457600080fd5b813560206139d4613521836134c8565b82815260059290921b840181019181810190868411156139f357600080fd5b8286015b8481101561356957803560078110613a0f5760008081fd5b83529183019183016139f7565b600080600080600080600060e0888a031215613a3757600080fd5b87356001600160401b0380821115613a4e57600080fd5b613a5a8b838c01613500565b985060208a0135915080821115613a7057600080fd5b613a7c8b838c01613574565b975060408a0135915080821115613a9257600080fd5b613a9e8b838c01613574565b965060608a0135915080821115613ab457600080fd5b613ac08b838c01613787565b955060808a0135915080821115613ad657600080fd5b613ae28b838c01613951565b945060a08a0135915080821115613af857600080fd5b613b048b838c01613951565b935060c08a0135915080821115613b1a57600080fd5b50613b278a828b016139b3565b91505092959891949750929550565b600080600080600060a08688031215613b4e57600080fd5b8535613b59816134eb565b94506020860135613b69816134eb565b9350604086013592506060860135915060808601356001600160401b03811115613b9257600080fd5b61394488828901613656565b6020808252600d908201526c14995391950e8e9c185d5cd959609a1b604082015260600190565b60208082526010908201526f2932a7232a1d1d3737ba1030b236b4b760811b604082015260600190565b634e487b7160e01b600052601160045260246000fd5b8181038181111561027b5761027b613bef565b634e487b7160e01b600052603260045260246000fd5b60609390931b6bffffffffffffffffffffffff191683526014830191909152603482015260540190565b634e487b7160e01b600052602160045260246000fd5b600060018201613c8057613c80613bef565b5060010190565b600060208284031215613c9957600080fd5b815161327f816134eb565b600060208284031215613cb657600080fd5b815161327f81613778565b600181815b80851115613cfc578160001904821115613ce257613ce2613bef565b80851615613cef57918102915b93841c9390800290613cc6565b509250929050565b600082613d135750600161027b565b81613d205750600061027b565b8160018114613d365760028114613d4057613d5c565b600191505061027b565b60ff841115613d5157613d51613bef565b50506001821b61027b565b5060208310610133831016604e8410600b8410161715613d7f575081810a61027b565b613d898383613cc1565b8060001904821115613d9d57613d9d613bef565b029392505050565b600061327f8383613d04565b6000816000190483118215151615613dcb57613dcb613bef565b500290565b60208082526019908201527f52654e46543a3a72656e74207072696365206973207a65726f00000000000000604082015260600190565b60208082526018908201527f52654e46543a3a6e6674207072696365206973207a65726f0000000000000000604082015260600190565b8082018082111561027b5761027b613bef565b60ff888116825260208201889052861660408201526001600160e01b031985811660608301528416608082015282151560a082015260e0810160078310613ea857634e487b7160e01b600052602160045260246000fd5b8260c083015298975050505050505050565b600081518084526020808501945080840160005b83811015613eea57815187529582019590820190600101613ece565b509495945050505050565b6001600160a01b0385811682528416602082015260a060408201819052600090613f2190830185613eba565b8281036060840152613f338185613eba565b838103608090940193909352505060008152602001949350505050565b600060208284031215613f6257600080fd5b815161327f81613730565b60208082526017908201527f52654e46543a3a6475726174696f6e206973207a65726f000000000000000000604082015260600190565b60208082526010908201526f0a4ca9c8ca87474dcdee840ead2dce8760831b604082015260600190565b600082613feb57634e487b7160e01b600052601260045260246000fd5b500490565b60005b8381101561400b578181015183820152602001613ff3565b50506000910152565b60008251614026818460208701613ff0565b9190910192915050565b602081526000825180602084015261404f816040850160208701613ff0565b601f01601f1916919091016040019291505056fea2646970667358221220a417cbd958d2a1288a6c58f7ba99d6698c201c577069ab6cf0c05812f9614e1a64736f6c63430008100033",
    "linkReferences": {}
  },
  "methodIdentifiers": {
    "claimCollateral(address[],uint256[],uint256[])": "59fe66e4",
    "lend(address[],uint256[],uint256[],uint8[],bytes4[],bytes4[],uint8[])": "e50364b2",
    "onERC1155BatchReceived(address,address,uint256[],uint256[],bytes)": "bc197c81",
    "onERC1155Received(address,address,uint256,uint256,bytes)": "f23a6e61",
    "onERC721Received(address,address,uint256,bytes)": "150b7a02",
    "paused()": "5c975abb",
    "rent(address[],uint256[],uint256[],uint8[])": "5de07ca3",
    "rentFee()": "bf2b23ea",
    "returnIt(address[],uint256[],uint256[])": "fb158519",
    "setBeneficiary(address)": "1c31f710",
    "setPaused(bool)": "16c38b3c",
    "setRentFee(uint256)": "76774ea3",
    "stopLending(address[],uint256[],uint256[])": "098130df",
    "supportsInterface(bytes4)": "01ffc9a7"
  },
  "id": 3
}