{
  "abi": [
    {
      "inputs": [
        {
          "internalType": "address",
          "name": "_resolver",
          "type": "address"
        },
        {
          "internalType": "address payable",
          "name": "_beneficiary",
          "type": "address"
        },
        {
          "internalType": "address",
          "name": "_admin",
          "type": "address"
        }
      ],
      "stateMutability": "nonpayable",
      "type": "constructor"
    },
    {
      "anonymous": false,
      "inputs": [
        {
          "indexed": true,
          "internalType": "uint256",
          "name": "lendingId",
          "type": "uint256"
        },
        {
          "indexed": false,
          "internalType": "uint32",
          "name": "claimedAt",
          "type": "uint32"
        }
      ],
      "name": "CollateralClaimed",
      "type": "event"
    },
    {
      "anonymous": false,
      "inputs": [
        {
          "indexed": true,
          "internalType": "uint256",
          "name": "lendingId",
          "type": "uint256"
        },
        {
          "indexed": false,
          "internalType": "uint32",
          "name": "stoppedAt",
          "type": "uint32"
        }
      ],
      "name": "LendingStopped",
      "type": "event"
    },
    {
      "anonymous": false,
      "inputs": [
        {
          "indexed": true,
          "internalType": "address",
          "name": "nftAddress",
          "type": "address"
        },
        {
          "indexed": true,
          "internalType": "uint256",
          "name": "tokenId",
          "type": "uint256"
        },
        {
          "indexed": false,
          "internalType": "uint8",
          "name": "lentAmount",
          "type": "uint8"
        },
        {
          "indexed": false,
          "internalType": "uint256",
          "name": "lendingId",
          "type": "uint256"
        },
        {
          "indexed": true,
          "internalType": "address",
          "name": "lenderAddress",
          "type": "address"
        },
        {
          "indexed": false,
          "internalType": "uint8",
          "name": "maxRentDuration",
          "type": "uint8"
        },
        {
          "indexed": false,
          "internalType": "bytes4",
          "name": "dailyRentPrice",
          "type": "bytes4"
        },
        {
          "indexed": false,
          "internalType": "bytes4",
          "name": "nftPrice",
          "type": "bytes4"
        },
        {
          "indexed": false,
          "internalType": "bool",
          "name": "isERC721",
          "type": "bool"
        },
        {
          "indexed": false,
          "internalType": "enum IResolver.PaymentToken",
          "name": "paymentToken",
          "type": "uint8"
        }
      ],
      "name": "Lent",
      "type": "event"
    },
    {
      "anonymous": false,
      "inputs": [
        {
          "indexed": false,
          "internalType": "uint256",
          "name": "lendingId",
          "type": "uint256"
        },
        {
          "indexed": true,
          "internalType": "address",
          "name": "renterAddress",
          "type": "address"
        },
        {
          "indexed": false,
          "internalType": "uint8",
          "name": "rentDuration",
          "type": "uint8"
        },
        {
          "indexed": false,
          "internalType": "uint32",
          "name": "rentedAt",
          "type": "uint32"
        }
      ],
      "name": "Rented",
      "type": "event"
    },
    {
      "anonymous": false,
      "inputs": [
        {
          "indexed": true,
          "internalType": "uint256",
          "name": "lendingId",
          "type": "uint256"
        },
        {
          "indexed": false,
          "internalType": "uint32",
          "name": "returnedAt",
          "type": "uint32"
        }
      ],
      "name": "Returned",
      "type": "event"
    },
    {
      "inputs": [
        {
          "internalType": "address[]",
          "name": "_nfts",
          "type": "address[]"
        },
        {
          "internalType": "uint256[]",
          "name": "_tokenIds",
          "type": "uint256[]"
        },
        {
          "internalType": "uint256[]",
          "name": "_lendingIds",
          "type": "uint256[]"
        }
      ],
      "name": "claimCollateral",
      "outputs": [],
      "stateMutability": "nonpayable",
      "type": "function"
    },
    {
      "inputs": [
        {
          "internalType": "address[]",
          "name": "_nfts",
          "type": "address[]"
        },
        {
          "internalType": "uint256[]",
          "name": "_tokenIds",
          "type": "uint256[]"
        },
        {
          "internalType": "uint256[]",
          "name": "_lendAmounts",
          "type": "uint256[]"
        },
        {
          "internalType": "uint8[]",
          "name": "_maxRentDurations",
          "type": "uint8[]"
        },
        {
          "internalType": "bytes4[]",
          "name": "_dailyRentPrices",
          "type": "bytes4[]"
        },
        {
          "internalType": "bytes4[]",
          "name": "_nftPrices",
          "type": "bytes4[]"
        },
        {
          "internalType": "enum IResolver.PaymentToken[]",
          "name": "_paymentTokens",
          "type": "uint8[]"
        }
      ],
      "name": "lend",
      "outputs": [],
      "stateMutability": "nonpayable",
      "type": "function"
    },
    {
      "inputs": [
        {
          "internalType": "address",
          "name": "",
          "type": "address"
        },
        {
          "internalType": "address",
          "name": "",
          "type": "address"
        },
        {
          "internalType": "uint256[]",
          "name": "",
          "type": "uint256[]"
        },
        {
          "internalType": "uint256[]",
          "name": "",
          "type": "uint256[]"
        },
        {
          "internalType": "bytes",
          "name": "",
          "type": "bytes"
        }
      ],
      "name": "onERC1155BatchReceived",
      "outputs": [
        {
          "internalType": "bytes4",
          "name": "",
          "type": "bytes4"
        }
      ],
      "stateMutability": "nonpayable",
      "type": "function"
    },
    {
      "inputs": [
        {
          "internalType": "address",
          "name": "",
          "type": "address"
        },
        {
          "internalType": "address",
          "name": "",
          "type": "address"
        },
        {
          "internalType": "uint256",
          "name": "",
          "type": "uint256"
        },
        {
          "internalType": "uint256",
          "name": "",
          "type": "uint256"
        },
        {
          "internalType": "bytes",
          "name": "",
          "type": "bytes"
        }
      ],
      "name": "onERC1155Received",
      "outputs": [
        {
          "internalType": "bytes4",
          "name": "",
          "type": "bytes4"
        }
      ],
      "stateMutability": "nonpayable",
      "type": "function"
    },
    {
      "inputs": [
        {
          "internalType": "address",
          "name": "",
          "type": "address"
        },
        {
          "internalType": "address",
          "name": "",
          "type": "address"
        },
        {
          "internalType": "uint256",
          "name": "",
          "type": "uint256"
        },
        {
          "internalType": "bytes",
          "name": "",
          "type": "bytes"
        }
      ],
      "name": "onERC721Received",
      "outputs": [
        {
          "internalType": "bytes4",
          "name": "",
          "type": "bytes4"
        }
      ],
      "stateMutability": "nonpayable",
      "type": "function"
    },
    {
      "inputs": [],
      "name": "paused",
      "outputs": [
        {
          "internalType": "bool",
          "name": "",
          "type": "bool"
        }
      ],
      "stateMutability": "view",
      "type": "function"
    },
    {
      "inputs": [
        {
          "internalType": "address[]",
          "name": "_nfts",
          "type": "address[]"
        },
        {
          "internalType": "uint256[]",
          "name": "_tokenIds",
          "type": "uint256[]"
        },
        {
          "internalType": "uint256[]",
          "name": "_lendingIds",
          "type": "uint256[]"
        },
        {
          "internalType": "uint8[]",
          "name": "_rentDurations",
          "type": "uint8[]"
        }
      ],
      "name": "rent",
      "outputs": [],
      "stateMutability": "nonpayable",
      "type": "function"
    },
    {
      "inputs": [],
      "name": "rentFee",
      "outputs": [
        {
          "internalType": "uint256",
          "name": "",
          "type": "uint256"
        }
      ],
      "stateMutability": "view",
      "type": "function"
    },
    {
      "inputs": [
        {
          "internalType": "address[]",
          "name": "_nfts",
          "type": "address[]"
        },
        {
          "internalType": "uint256[]",
          "name": "_tokenIds",
          "type": "uint256[]"
        },
        {
          "internalType": "uint256[]",
          "name": "_lendingIds",
          "type": "uint256[]"
        }
      ],
      "name": "returnIt",
      "outputs": [],
      "stateMutability": "nonpayable",
      "type": "function"
    },
    {
      "inputs": [
        {
          "internalType": "address payable",
          "name": "_newBeneficiary",
          "type": "address"
        }
      ],
      "name": "setBeneficiary",
      "outputs": [],
      "stateMutability": "nonpayable",
      "type": "function"
    },
    {
      "inputs": [
        {
          "internalType": "bool",
          "name": "_paused",
          "type": "bool"
        }
      ],
      "name": "setPaused",
      "outputs": [],
      "stateMutability": "nonpayable",
      "type": "function"
    },
    {
      "inputs": [
        {
          "internalType": "uint256",
          "name": "_rentFee",
          "type": "uint256"
        }
      ],
      "name": "setRentFee",
      "outputs": [],
      "stateMutability": "nonpayable",
      "type": "function"
    },
    {
      "inputs": [
        {
          "internalType": "address[]",
          "name": "_nfts",
          "type": "address[]"
        },
        {
          "internalType": "uint256[]",
          "name": "_tokenIds",
          "type": "uint256[]"
        },
        {
          "internalType": "uint256[]",
          "name": "_lendingIds",
          "type": "uint256[]"
        }
      ],
      "name": "stopLending",
      "outputs": [],
      "stateMutability": "nonpayable",
      "type": "function"
    },
    {
      "inputs": [
        {
          "internalType": "bytes4",
          "name": "interfaceId",
          "type": "bytes4"
        }
      ],
      "name": "supportsInterface",
      "outputs": [
        {
          "internalType": "bool",
          "name": "",
          "type": "bool"
        }
      ],
      "stateMutability": "view",
      "type": "function"
    }
  ],
  "bytecode": {
    "object": "0x608060405260016003556004805460ff1916905560006005553480156200002557600080fd5b506040516200425e3803806200425e83398101604081905262000048916200010a565b6200005383620000ac565b6200005e82620000ac565b6200006981620000ac565b600080546001600160a01b039485166001600160a01b03199182161790915560028054938516938216939093179092556001805491909316911617905562000174565b6001600160a01b038116620001075760405162461bcd60e51b815260206004820152601360248201527f52654e46543a3a7a65726f206164647265737300000000000000000000000000604482015260640160405180910390fd5b50565b6000806000606084860312156200012057600080fd5b83516200012d816200015e565b602085015190935062000140816200015e565b604085015190925062000153816200015e565b809150509250925092565b6001600160a01b03811681146200010757600080fd5b6140da80620001846000396000f3fe608060405234801561001057600080fd5b50600436106100ea5760003560e01c80635de07ca31161008c578063bf2b23ea11610066578063bf2b23ea146101e3578063e50364b2146101fa578063f23a6e611461020d578063fb1585191461022c57600080fd5b80635de07ca31461019e57806376774ea3146101b1578063bc197c81146101c457600080fd5b806316c38b3c116100c857806316c38b3c146101585780631c31f7101461016b57806359fe66e41461017e5780635c975abb1461019157600080fd5b806301ffc9a7146100ef578063098130df14610117578063150b7a021461012c575b600080fd5b6101026100fd366004613b3c565b61023f565b60405190151581526020015b60405180910390f35b61012a6101253660046138c1565b610276565b005b61013f61013a3660046137ee565b6102bd565b6040516001600160e01b0319909116815260200161010e565b61012a610166366004613b02565b6102ce565b61012a610179366004613724565b61030b565b61012a61018c3660046138c1565b610357565b6004546101029060ff1681565b61012a6101ac366004613948565b61038b565b61012a6101bf366004613b57565b6103c6565b61013f6101d2366004613741565b63bc197c8160e01b95945050505050565b6101ec60055481565b60405190815260200161010e565b61012a6102083660046139e8565b610446565b61013f61021b366004613859565b63f23a6e6160e01b95945050505050565b61012a61023a3660046138c1565b610487565b60006001600160e01b03198216630271189760e51b148061027057506301ffc9a760e01b6001600160e01b03198316145b92915050565b60045460ff16156102a25760405162461bcd60e51b815260040161029990613d34565b60405180910390fd5b6102b86104bb6102b385858561084a565b610986565b505050565b630a85bd0160e11b5b949350505050565b6001546001600160a01b031633146102f85760405162461bcd60e51b815260040161029990613d92565b6004805460ff1916911515919091179055565b6001546001600160a01b031633146103355760405162461bcd60e51b815260040161029990613d92565b600280546001600160a01b0319166001600160a01b0392909216919091179055565b60045460ff161561037a5760405162461bcd60e51b815260040161029990613d34565b6102b8610aae6102b385858561084a565b60045460ff16156103ae5760405162461bcd60e51b815260040161029990613d34565b6103c0610e006102b3868686866113f1565b50505050565b6001546001600160a01b031633146103f05760405162461bcd60e51b815260040161029990613d92565b61271081106104415760405162461bcd60e51b815260206004820152601960248201527f52654e46543a3a666565206578636565647320313030706374000000000000006044820152606401610299565b600555565b60045460ff16156104695760405162461bcd60e51b815260040161029990613d34565b61047e61153f6102b389898989898989611a5c565b50505050505050565b60045460ff16156104aa5760405162461bcd60e51b815260040161029990613d34565b6102b8611b2a6102b385858561084a565b805160208201516000916104ce91613fbc565b6001600160401b038111156104e5576104e561405c565b60405190808252806020026020018201604052801561050e578160200160208202803683370190505b5082519091505b826020015181101561080e57600060066000856040015186600001518151811061054157610541614046565b60200260200101518660600151858151811061055f5761055f614046565b6020026020010151876101000151868151811061057e5761057e614046565b602002602001015160405160200161059893929190613bc8565b60408051601f198184030181529181528151602092830120835282820193909352908201600020825160c08101845281546001600160a01b038116825260ff600160a01b82048116948301949094526001600160e01b0319600160a81b820460e090811b821696840196909652600160c81b820490951b9094166060820152600160e81b840483166080820152909350610668929091849160a0840191600160f01b90910416600781111561064f5761064f614030565b600781111561066057610660614030565b905250611e10565b6040805160608101825260018301546001600160a01b0381168252600160a01b810460ff166020830152600160a81b900463ffffffff16918101919091526106af90611ebc565b6040805160c08101825282546001600160a01b038116825260ff600160a01b8204811660208401526001600160e01b0319600160a81b830460e090811b821695850195909552600160c81b830490941b9093166060830152600160e81b81048316608083015261075492849160a0840191600160f01b90910416600781111561073a5761073a614030565b600781111561074b5761074b614030565b90525033611f6f565b80548451600160e81b90910460ff169084906107709085613fbc565b8151811061078057610780614046565b60200260200101818152505083610100015182815181106107a3576107a3614046565b60200260200101517f61bcecd87c002ae006d9d8c760291b4f3646fa6109590b4b3ea93084aae4bb6a426040516107e6919063ffffffff91909116815260200190565b60405180910390a280546001600160f81b03191690558061080681613fff565b915050610515565b5061084682303361082e8660600151876000015188602001516000611fc8565b8651602088015161084191889181611fc8565b612087565b5050565b6108526133f4565b604051806101600160405280600081526020016001815260200185815260200184815260200160006001600160401b038111156108915761089161405c565b6040519080825280602002602001820160405280156108ba578160200160208202803683370190505b50815260200160006040519080825280602002602001820160405280156108eb578160200160208202803683370190505b508152602001600060405190808252806020026020018201604052801561091c578160200160208202803683370190505b508152602001600060405190808252806020026020018201604052801561094d578160200160208202803683370190505b50815260208082019490945260408051600080825281870183528284019190915281519081529485019052606001929092525092915050565b6000816040015151116109cc5760405162461bcd60e51b815260206004820152600e60248201526d52654e46543a3a6e6f206e66747360901b6044820152606401610299565b806040015151816020015114610aa15780604001518160200151815181106109f6576109f6614046565b60200260200101516001600160a01b03168160400151826000015181518110610a2157610a21614046565b60200260200101516001600160a01b0316148015610a645750610a648160400151826020015181518110610a5757610a57614046565b602002602001015161222b565b15610a815760208101805190610a7982613fff565b9052506109cc565b610a8e818363ffffffff16565b60208101805180835290610a7982613fff565b610846818363ffffffff16565b80515b8160200151811015610846576000600660008460400151856000015181518110610add57610add614046565b602002602001015185606001518581518110610afb57610afb614046565b60200260200101518661010001518681518110610b1a57610b1a614046565b6020026020010151604051602001610b3493929190613bc8565b60408051601f198184030181529181528151602092830120835282820193909352908201600020825160c08101845281546001600160a01b038116825260ff600160a01b82048116948301949094526001600160e01b0319600160a81b820460e090811b821696840196909652600160c81b820490951b9094166060820152600160e81b840483166080820152909350610beb929091849160a0840191600160f01b90910416600781111561064f5761064f614030565b6040805160608101825260018301546001600160a01b0381168252600160a01b810460ff166020830152600160a81b900463ffffffff1691810191909152610c32906122ad565b6040805160608101825260018301546001600160a01b0381168252600160a01b810460ff166020830152600160a81b900463ffffffff1691810191909152610c7a9042612333565b604080516101008101825282546001600160a01b03811692820192835260ff600160a01b8204811660608401526001600160e01b0319600160a81b830460e090811b82166080860152600160c81b8404811b90911660a0850152600160e81b8304821660c0850152610d6d94869385939192859290850191600160f01b9004166007811115610d0b57610d0b614030565b6007811115610d1c57610d1c614030565b905250815260408051606081018252600193909301546001600160a01b0381168452600160a01b810460ff16602080860191909152600160a81b90910463ffffffff16918401919091520152612389565b8261010001518281518110610d8457610d84614046565b60200260200101517f8ac1440f996b8b13e31275705c447bd09a92005cf2ec131a8183afedc636f5a242604051610dc7919063ffffffff91909116815260200190565b60405180910390a280546001600160f81b031916815560010180546001600160c81b031916905580610df881613fff565b915050610ab1565b80516020820151600091610e1391613fbc565b6001600160401b03811115610e2a57610e2a61405c565b604051908082528060200260200182016040528015610e53578160200160208202803683370190505b5082519091505b826020015181101561080e576000600660008560400151866000015181518110610e8657610e86614046565b602002602001015186606001518581518110610ea457610ea4614046565b60200260200101518761010001518681518110610ec357610ec3614046565b6020026020010151604051602001610edd93929190613bc8565b60408051601f198184030181529181528151602092830120835282820193909352908201600020825160c08101845281546001600160a01b038116825260ff600160a01b82048116948301949094526001600160e01b0319600160a81b820460e090811b821696840196909652600160c81b820490951b9094166060820152600160e81b840483166080820152909350610f94929091849160a0840191600160f01b90910416600781111561064f5761064f614030565b6040805160608101825260018301546001600160a01b0381168252600160a01b810460ff166020830152600160a81b900463ffffffff1691810191909152610fdb90611ebc565b6040805160c08101825282546001600160a01b038116825260ff600160a01b8204811660208401526001600160e01b0319600160a81b830460e090811b821695850195909552600160c81b830490941b9093166060830152600160e81b81048316608083015261108292849160a0840191600160f01b90910416600781111561106657611066614030565b600781111561107757611077614030565b9052508584336125ca565b8054600090600160f01b900460ff1660078111156110a2576110a2614030565b90506110ad81612735565b6000805460405163c6ee427f60e01b815260ff841660048201526001600160a01b039091169063c6ee427f9060240160206040518083038186803b1580156110f457600080fd5b505afa158015611108573d6000803e3d6000fd5b505050506040513d601f19601f8201168201806040525081019061112c9190613700565b90506000816001600160a01b031663313ce5676040518163ffffffff1660e01b815260040160206040518083038186803b15801561116957600080fd5b505afa15801561117d573d6000803e3d6000fd5b505050506040513d601f19601f820116820180604052508101906111a19190613b70565b60ff16905060006111b382600a613ef5565b85549091506000906111cf90600160a81b900460e01b83612788565b89610120015188815181106111e6576111e6614046565b602002602001015160ff166111fb9190613f9d565b865490915060009061121790600160c81b900460e01b84612788565b875461122d9190600160e81b900460ff16613f9d565b90506000821161124f5760405162461bcd60e51b815260040161029990613cd3565b6000811161126f5760405162461bcd60e51b815260040161029990613d5b565b611290333061127e8486613e78565b6001600160a01b038916929190612817565b505084548851600160e81b90910460ff16915087906112af9088613fbc565b815181106112bf576112bf614046565b60209081029190910101526001840180546001600160a01b031916331790556101208701518051869081106112f6576112f6614046565b602090810291909101015160018501805464ffffffffff60a01b1916600160a01b60ff9093169290920263ffffffff60a81b191691909117600160a81b4263ffffffff1602179055610100870151805133917f3140d73adcc923e4a0de3b1522aeec546a872bcdc06a3e25fe1209df30b954ec918890811061137a5761137a614046565b6020026020010151896101200151888151811061139957611399614046565b60209081029190910181015160018901546040805194855260ff90921692840192909252600160a81b90910463ffffffff169082015260600160405180910390a25050505080806113e990613fff565b915050610e5a565b6113f96133f4565b604051806101600160405280600081526020016001815260200186815260200185815260200160006001600160401b038111156114385761143861405c565b604051908082528060200260200182016040528015611461578160200160208202803683370190505b5081526020016000604051908082528060200260200182016040528015611492578160200160208202803683370190505b50815260200160006040519080825280602002602001820160405280156114c3578160200160208202803683370190505b50815260200160006040519080825280602002602001820160405280156114f4578160200160208202803683370190505b50815260208101859052604081018490526060016000604051908082528060200260200182016040528015611533578160200160208202803683370190505b50905295945050505050565b80515b8160200151811015611a20576115588282612882565b600060066000846040015185600001518151811061157857611578614046565b60200260200101518560600151858151811061159657611596614046565b60200260200101516003546040516020016115b393929190613bc8565b60408051601f198184030181529181528151602092830120835282820193909352908201600020825160c08101845281546001600160a01b038116825260ff600160a01b82048116948301949094526001600160e01b0319600160a81b820460e090811b821696840196909652600160c81b820490951b9094166060820152600160e81b840483166080820152909350611683929091849160a0840191600160f01b90910416600781111561166a5761166a614030565b600781111561167b5761167b614030565b905250612a3e565b6040805160608101825260018301546001600160a01b0381168252600160a01b810460ff166020830152600160a81b900463ffffffff16918101919091526116ca90611ebc565b60006116f2846040015184815181106116e5576116e5614046565b6020026020010151612b51565b90506040518060c00160405280336001600160a01b031681526020018560a00151858151811061172457611724614046565b602002602001015160ff1681526020018560c00151858151811061174a5761174a614046565b60200260200101516001600160e01b03191681526020018560e00151858151811061177757611777614046565b60200260200101516001600160e01b0319168152602001826117b657856080015185815181106117a9576117a9614046565b60200260200101516117b9565b60015b60ff16815260200185610140015185815181106117d8576117d8614046565b602002602001015160078111156117f1576117f1614030565b90528051835460208301516040840151606085015160808601516001600160a01b039095166001600160a81b031990941693909317600160a01b60ff938416021767ffffffffffffffff60a81b1916600160a81b60e092831c0263ffffffff60c81b191617600160c81b9390911c929092029190911760ff60e81b198116600160e81b9290931691909102918217855560a083015185929091839161ffff60e81b1990911660ff60f01b1990911617600160f01b8360078111156118b7576118b7614030565b0217905550905050336001600160a01b0316846060015184815181106118df576118df614046565b6020026020010151856040015186600001518151811061190157611901614046565b60200260200101516001600160a01b03167fc1b2f77226541f6b308379a3110d77af45464d9a161a6eb4b6cfdcd0fb2089c68461195b578760800151878151811061194e5761194e614046565b602002602001015161195e565b60015b6003548960a00151898151811061197757611977614046565b60200260200101518a60c001518a8151811061199557611995614046565b60200260200101518b60e001518b815181106119b3576119b3614046565b6020026020010151898d61014001518d815181106119d3576119d3614046565b60200260200101516040516119ee9796959493929190613dbc565b60405180910390a460038054906000611a0683613fff565b919050555050508080611a1890613fff565b915050611542565b50611a59813330611a408560600151866000015187602001516000611fc8565b6108418660800151876000015188602001516000611fc8565b50565b611a646133f4565b604051806101600160405280600081526020016001815260200189815260200188815260200187815260200186815260200185815260200184815260200160006001600160401b03811115611abb57611abb61405c565b604051908082528060200260200182016040528015611ae4578160200160208202803683370190505b5081526020016000604051908082528060200260200182016040528015611b15578160200160208202803683370190505b50815260200192909252509695505050505050565b80516020820151600091611b3d91613fbc565b6001600160401b03811115611b5457611b5461405c565b604051908082528060200260200182016040528015611b7d578160200160208202803683370190505b5082519091505b8260200151811015611df0576000600660008560400151866000015181518110611bb057611bb0614046565b602002602001015186606001518581518110611bce57611bce614046565b60200260200101518761010001518681518110611bed57611bed614046565b6020026020010151604051602001611c0793929190613bc8565b60408051601f198184030181529181528151602092830120835282820193909352908201600020825160c08101845281546001600160a01b038116825260ff600160a01b82048116948301949094526001600160e01b0319600160a81b820460e090811b821696840196909652600160c81b820490951b9094166060820152600160e81b840483166080820152909350611cbe929091849160a0840191600160f01b90910416600781111561064f5761064f614030565b6040805160608101825260018301546001600160a01b0381168252600160a01b810460ff166020830152600160a81b900463ffffffff1691810191909152611d07903342612b87565b6001810154600090611d2690600160a81b900463ffffffff1642613fbc565b9050611d328282612c37565b81548551600160e81b90910460ff16908590611d4e9086613fbc565b81518110611d5e57611d5e614046565b6020026020010181815250508461010001518381518110611d8157611d81614046565b60200260200101517f289da9cb3ecd362ad5ae230d4daa346e68abbd8972cd9c01df54b7b1b97ab15b42604051611dc4919063ffffffff91909116815260200190565b60405180910390a25060010180546001600160c81b031916905580611de881613fff565b915050611b84565b5061084682333061082e8660600151876000015188602001516000611fc8565b8051611e1b90612f2d565b602081015160ff16611e665760405162461bcd60e51b815260206004820152601460248201527352654e46543a3a6475726174696f6e207a65726f60601b6044820152606401610299565b60408101516001600160e01b031916611e915760405162461bcd60e51b815260040161029990613cd3565b60608101516001600160e01b031916611a595760405162461bcd60e51b815260040161029990613d5b565b8051611ec790612f79565b602081015160ff1615611f175760405162461bcd60e51b815260206004820152601860248201527752654e46543a3a6475726174696f6e206e6f74207a65726f60401b6044820152606401610299565b604081015163ffffffff1615611a595760405162461bcd60e51b815260206004820152601960248201527f52654e46543a3a72656e746564206174206e6f74207a65726f000000000000006044820152606401610299565b806001600160a01b031682600001516001600160a01b0316146108465760405162461bcd60e51b81526020600482015260116024820152702932a7232a1d1d3737ba103632b73232b960791b6044820152606401610299565b6060611fd48484613fbc565b6001600160401b03811115611feb57611feb61405c565b604051908082528060200260200182016040528015612014578160200160208202803683370190505b509050835b8381101561207e578561202c8483613fbc565b8151811061203c5761203c614046565b60200260200101518286836120519190613fbc565b8151811061206157612061614046565b60209081029190910101528061207681613fff565b915050612019565b50949350505050565b6120a485604001518660000151815181106116e5576116e5614046565b1561216a5760408501518551815181106120c0576120c0614046565b60200260200101516001600160a01b03166323b872dd858588606001518960000151815181106120f2576120f2614046565b60209081029190910101516040516001600160e01b031960e086901b1681526001600160a01b03938416600482015292909116602483015260448201526064015b600060405180830381600087803b15801561214d57600080fd5b505af1158015612161573d6000803e3d6000fd5b50505050612224565b6121878560400151866000015181518110610a5757610a57614046565b156121dc5760408501518551815181106121a3576121a3614046565b60200260200101516001600160a01b0316632eb2c2d6858585856040518563ffffffff1660e01b81526004016121339493929190613c0e565b60405162461bcd60e51b815260206004820152601d60248201527f52654e46543a3a756e737570706f7274656420746f6b656e20747970650000006044820152606401610299565b5050505050565b6040516301ffc9a760e01b8152636cdb3d1360e11b60048201526000906001600160a01b038316906301ffc9a7906024015b60206040518083038186803b15801561227557600080fd5b505afa158015612289573d6000803e3d6000fd5b505050506040513d601f19601f820116820180604052508101906102709190613b1f565b80516122b890612f2d565b602081015160ff166122dc5760405162461bcd60e51b815260040161029990613c9c565b604081015163ffffffff16611a595760405162461bcd60e51b815260206004820152601860248201527f52654e46543a3a72656e746564206174206973207a65726f00000000000000006044820152606401610299565b61233d8282612fd0565b6108465760405162461bcd60e51b815260206004820152601d60248201527f52654e46543a3a72657475726e2064617465206e6f74207061737365640000006044820152606401610299565b805160a0015160009060078111156123a3576123a3614030565b90506123ae81612735565b6000805460405163c6ee427f60e01b815260ff841660048201526001600160a01b039091169063c6ee427f9060240160206040518083038186803b1580156123f557600080fd5b505afa158015612409573d6000803e3d6000fd5b505050506040513d601f19601f8201168201806040525081019061242d9190613700565b90506000816001600160a01b031663313ce5676040518163ffffffff1660e01b815260040160206040518083038186803b15801561246a57600080fd5b505afa15801561247e573d6000803e3d6000fd5b505050506040513d601f19601f820116820180604052508101906124a29190613b70565b60ff16905060006124b482600a613ef5565b905060006124ca86600001516060015183612788565b8651608001516124dd919060ff16613f9d565b905060006124f387600001516040015184612788565b9050600087602001516020015160ff168261250e9190613f9d565b90506000612530828960ff16600781111561252b5761252b614030565b61305e565b9050600061253e8584613e78565b90506000831161259c5760405162461bcd60e51b815260206004820152602360248201527f52654e46543a3a636f6c6c61746572616c20706c75732072656e74206973207a60448201526265726f60e81b6064820152608401610299565b8951516125be906125ad8484613fbc565b6001600160a01b038b169190613141565b50505050505050505050565b83516001600160a01b03828116911614156126275760405162461bcd60e51b815260206004820152601860248201527f52654e46543a3a63616e742072656e74206f776e206e667400000000000000006044820152606401610299565b60ff8016836101200151838151811061264257612642614046565b602002602001015160ff16111561266b5760405162461bcd60e51b815260040161029990613d0a565b6000836101200151838151811061268457612684614046565b602002602001015160ff16116126ac5760405162461bcd60e51b815260040161029990613c9c565b836020015160ff1683610120015183815181106126cb576126cb614046565b602002602001015160ff1611156103c05760405162461bcd60e51b815260206004820152602860248201527f52654e46543a3a72656e74206475726174696f6e206578636565647320616c6c6044820152670deeecac840dac2f60c31b6064820152608401610299565b60008160ff1611611a595760405162461bcd60e51b815260206004820152601860248201527f52654e46543a3a746f6b656e2069732073656e74696e656c00000000000000006044820152606401610299565b60006127948383613171565b60f083901c61ffff60e085901c1660006127b061271086613e90565b905061270f8361ffff1611156127c65761270f92505b61270f8261ffff1611156127da5761270f91505b60006127ea8661ffff8616613f9d565b905060006127fc8361ffff8616613f9d565b9050600061280a8284613e78565b9998505050505050505050565b6040516001600160a01b03808516602483015283166044820152606481018290526103c09085906323b872dd60e01b906084015b60408051601f198184030181529190526020810180516001600160e01b03166001600160e01b031990931692909217909152613202565b60008260800151828151811061289a5761289a614046565b6020026020010151116128ef5760405162461bcd60e51b815260206004820152601a60248201527f52654e46543a3a6c656e6420616d6f756e74206973207a65726f0000000000006044820152606401610299565b60ff80168260800151828151811061290957612909614046565b6020026020010151111561292f5760405162461bcd60e51b815260040161029990613d0a565b60008260a00151828151811061294757612947614046565b602002602001015160ff161161296f5760405162461bcd60e51b815260040161029990613c9c565b60ff80168260a00151828151811061298957612989614046565b602002602001015160ff1611156129b25760405162461bcd60e51b815260040161029990613d0a565b60008260c0015182815181106129ca576129ca614046565b602002602001015160e01c63ffffffff16116129f85760405162461bcd60e51b815260040161029990613cd3565b60008260e001518281518110612a1057612a10614046565b602002602001015160e01c63ffffffff16116108465760405162461bcd60e51b815260040161029990613d5b565b8051612a4990612f79565b602081015160ff1615612a995760405162461bcd60e51b815260206004820152601860248201527752654e46543a3a6475726174696f6e206e6f74207a65726f60401b6044820152606401610299565b60408101516001600160e01b03191615612af55760405162461bcd60e51b815260206004820152601a60248201527f52654e46543a3a72656e74207072696365206e6f74207a65726f0000000000006044820152606401610299565b60608101516001600160e01b03191615611a595760405162461bcd60e51b815260206004820152601960248201527f52654e46543a3a6e6674207072696365206e6f74207a65726f000000000000006044820152606401610299565b6040516301ffc9a760e01b81526380ac58cd60e01b60048201526000906001600160a01b038316906301ffc9a79060240161225d565b816001600160a01b031683600001516001600160a01b031614612be05760405162461bcd60e51b81526020600482015260116024820152702932a7232a1d1d3737ba103932b73a32b960791b6044820152606401610299565b612bea8382612fd0565b156102b85760405162461bcd60e51b815260206004820152601760248201527f52654e46543a3a706173742072657475726e20646174650000000000000000006044820152606401610299565b8154600090600160f01b900460ff166007811115612c5757612c57614030565b9050612c6281612735565b6000805460405163c6ee427f60e01b815260ff841660048201526001600160a01b039091169063c6ee427f9060240160206040518083038186803b158015612ca957600080fd5b505afa158015612cbd573d6000803e3d6000fd5b505050506040513d601f19601f82011682018060405250810190612ce19190613700565b90506000816001600160a01b031663313ce5676040518163ffffffff1660e01b815260040160206040518083038186803b158015612d1e57600080fd5b505afa158015612d32573d6000803e3d6000fd5b505050506040513d601f19601f82011682018060405250810190612d569190613b70565b60ff1690506000612d6882600a613ef5565b8654909150600090612d8490600160c81b900460e01b83612788565b8754612d9a9190600160e81b900460ff16613f9d565b8754909150600090612db690600160a81b900460e01b84612788565b6001890154909150600090612dd590600160a01b900460ff1683613f9d565b9050600062015180612de7848b613f9d565b612df19190613e90565b905060008211612e565760405162461bcd60e51b815260206004820152602a60248201527f52654e46543a3a746f74616c207061796d656e7420776f20636f6c6c61746572604482015269616c206973207a65726f60b01b6064820152608401610299565b60008111612ea65760405162461bcd60e51b815260206004820152601d60248201527f52654e46543a3a6c656e646572207061796d656e74206973207a65726f0000006044820152606401610299565b6000612eb28284613fbc565b8b54909150600090612ecf908490600160f01b900460ff1661305e565b9050612edb8184613fbc565b9250612ee78683613e78565b8c54909250612f03906001600160a01b038b8116911685613141565b60018c0154612f1f906001600160a01b038b8116911684613141565b505050505050505050505050565b6001600160a01b038116611a595760405162461bcd60e51b815260206004820152601360248201527252654e46543a3a7a65726f206164647265737360681b6044820152606401610299565b6001600160a01b03811615611a595760405162461bcd60e51b815260206004820152601960248201527f52654e46543a3a6e6f742061207a65726f2061646472657373000000000000006044820152606401610299565b6000826040015163ffffffff16821161302b5760405162461bcd60e51b815260206004820152601860248201527f52654e46543a3a6e6f77206265666f72652072656e74656400000000000000006044820152606401610299565b62015180836020015160ff166130419190613f9d565b60408401516130569063ffffffff1684613fbc565b119392505050565b60006005548361306e9190613f9d565b905061307c61271082613e90565b9050600082600781111561309257613092614030565b905061309d81612735565b6000805460405163c6ee427f60e01b815260ff841660048201526001600160a01b039091169063c6ee427f9060240160206040518083038186803b1580156130e457600080fd5b505afa1580156130f8573d6000803e3d6000fd5b505050506040513d601f19601f8201168201806040525081019061311c9190613700565b600254909150613139906001600160a01b03808416911685613141565b505092915050565b6040516001600160a01b0383166024820152604481018290526102b890849063a9059cbb60e01b9060640161284b565b60e082901c6131b95760405162461bcd60e51b815260206004820152601460248201527352654e46543a3a696e76616c696420707269636560601b6044820152606401610299565b6127108110156108465760405162461bcd60e51b815260206004820152601460248201527352654e46543a3a696e76616c6964207363616c6560601b6044820152606401610299565b6000613257826040518060400160405280602081526020017f5361666545524332303a206c6f772d6c6576656c2063616c6c206661696c6564815250856001600160a01b03166132d49092919063ffffffff16565b8051909150156102b857808060200190518101906132759190613b1f565b6102b85760405162461bcd60e51b815260206004820152602a60248201527f5361666545524332303a204552433230206f7065726174696f6e20646964206e6044820152691bdd081cdd58d8d9595960b21b6064820152608401610299565b60606102c6848460008585600080866001600160a01b031685876040516132fb9190613bf2565b60006040518083038185875af1925050503d8060008114613338576040519150601f19603f3d011682016040523d82523d6000602084013e61333d565b606091505b509150915061334e87838387613359565b979650505050505050565b606083156133c55782516133be576001600160a01b0385163b6133be5760405162461bcd60e51b815260206004820152601d60248201527f416464726573733a2063616c6c20746f206e6f6e2d636f6e74726163740000006044820152606401610299565b50816102c6565b6102c683838151156133da5781518083602001fd5b8060405162461bcd60e51b81526004016102999190613c69565b60405180610160016040528060008152602001600081526020016060815260200160608152602001606081526020016060815260200160608152602001606081526020016060815260200160608152602001606081525090565b600082601f83011261345f57600080fd5b8135602061347461346f83613e55565b613e25565b80838252828201915082860187848660051b890101111561349457600080fd5b60005b858110156134bc5781356134aa81614072565b84529284019290840190600101613497565b5090979650505050505050565b600082601f8301126134da57600080fd5b813560206134ea61346f83613e55565b80838252828201915082860187848660051b890101111561350a57600080fd5b60005b858110156134bc5761351e82613674565b8452928401929084019060010161350d565b600082601f83011261354157600080fd5b8135602061355161346f83613e55565b80838252828201915082860187848660051b890101111561357157600080fd5b6000805b8681101561359d5782356008811061358b578283fd5b85529385019391850191600101613575565b509198975050505050505050565b600082601f8301126135bc57600080fd5b813560206135cc61346f83613e55565b80838252828201915082860187848660051b89010111156135ec57600080fd5b60005b858110156134bc578135845292840192908401906001016135ef565b600082601f83011261361c57600080fd5b8135602061362c61346f83613e55565b80838252828201915082860187848660051b890101111561364c57600080fd5b60005b858110156134bc57813561366281614095565b8452928401929084019060010161364f565b80356001600160e01b03198116811461368c57600080fd5b919050565b600082601f8301126136a257600080fd5b81356001600160401b038111156136bb576136bb61405c565b6136ce601f8201601f1916602001613e25565b8181528460208386010111156136e357600080fd5b816020850160208301376000918101602001919091529392505050565b60006020828403121561371257600080fd5b815161371d81614072565b9392505050565b60006020828403121561373657600080fd5b813561371d81614072565b600080600080600060a0868803121561375957600080fd5b853561376481614072565b9450602086013561377481614072565b935060408601356001600160401b038082111561379057600080fd5b61379c89838a016135ab565b945060608801359150808211156137b257600080fd5b6137be89838a016135ab565b935060808801359150808211156137d457600080fd5b506137e188828901613691565b9150509295509295909350565b6000806000806080858703121561380457600080fd5b843561380f81614072565b9350602085013561381f81614072565b92506040850135915060608501356001600160401b0381111561384157600080fd5b61384d87828801613691565b91505092959194509250565b600080600080600060a0868803121561387157600080fd5b853561387c81614072565b9450602086013561388c81614072565b9350604086013592506060860135915060808601356001600160401b038111156138b557600080fd5b6137e188828901613691565b6000806000606084860312156138d657600080fd5b83356001600160401b03808211156138ed57600080fd5b6138f98783880161344e565b9450602086013591508082111561390f57600080fd5b61391b878388016135ab565b9350604086013591508082111561393157600080fd5b5061393e868287016135ab565b9150509250925092565b6000806000806080858703121561395e57600080fd5b84356001600160401b038082111561397557600080fd5b6139818883890161344e565b9550602087013591508082111561399757600080fd5b6139a3888389016135ab565b945060408701359150808211156139b957600080fd5b6139c5888389016135ab565b935060608701359150808211156139db57600080fd5b5061384d8782880161360b565b600080600080600080600060e0888a031215613a0357600080fd5b87356001600160401b0380821115613a1a57600080fd5b613a268b838c0161344e565b985060208a0135915080821115613a3c57600080fd5b613a488b838c016135ab565b975060408a0135915080821115613a5e57600080fd5b613a6a8b838c016135ab565b965060608a0135915080821115613a8057600080fd5b613a8c8b838c0161360b565b955060808a0135915080821115613aa257600080fd5b613aae8b838c016134c9565b945060a08a0135915080821115613ac457600080fd5b613ad08b838c016134c9565b935060c08a0135915080821115613ae657600080fd5b50613af38a828b01613530565b91505092959891949750929550565b600060208284031215613b1457600080fd5b813561371d81614087565b600060208284031215613b3157600080fd5b815161371d81614087565b600060208284031215613b4e57600080fd5b61371d82613674565b600060208284031215613b6957600080fd5b5035919050565b600060208284031215613b8257600080fd5b815161371d81614095565b600081518084526020808501945080840160005b83811015613bbd57815187529582019590820190600101613ba1565b509495945050505050565b60609390931b6bffffffffffffffffffffffff191683526014830191909152603482015260540190565b60008251613c04818460208701613fd3565b9190910192915050565b6001600160a01b0385811682528416602082015260a060408201819052600090613c3a90830185613b8d565b8281036060840152613c4c8185613b8d565b838103608090940193909352505060008152602001949350505050565b6020815260008251806020840152613c88816040850160208701613fd3565b601f01601f19169190910160400192915050565b60208082526017908201527f52654e46543a3a6475726174696f6e206973207a65726f000000000000000000604082015260600190565b60208082526019908201527f52654e46543a3a72656e74207072696365206973207a65726f00000000000000604082015260600190565b60208082526010908201526f0a4ca9c8ca87474dcdee840ead2dce8760831b604082015260600190565b6020808252600d908201526c14995391950e8e9c185d5cd959609a1b604082015260600190565b60208082526018908201527f52654e46543a3a6e6674207072696365206973207a65726f0000000000000000604082015260600190565b60208082526010908201526f2932a7232a1d1d3737ba1030b236b4b760811b604082015260600190565b60ff888116825260208201889052861660408201526001600160e01b031985811660608301528416608082015282151560a082015260e0810160088310613e1357634e487b7160e01b600052602160045260246000fd5b8260c083015298975050505050505050565b604051601f8201601f191681016001600160401b0381118282101715613e4d57613e4d61405c565b604052919050565b60006001600160401b03821115613e6e57613e6e61405c565b5060051b60200190565b60008219821115613e8b57613e8b61401a565b500190565b600082613ead57634e487b7160e01b600052601260045260246000fd5b500490565b600181815b80851115613eed578160001904821115613ed357613ed361401a565b80851615613ee057918102915b93841c9390800290613eb7565b509250929050565b600061371d8383600082613f0b57506001610270565b81613f1857506000610270565b8160018114613f2e5760028114613f3857613f54565b6001915050610270565b60ff841115613f4957613f4961401a565b50506001821b610270565b5060208310610133831016604e8410600b8410161715613f77575081810a610270565b613f818383613eb2565b8060001904821115613f9557613f9561401a565b029392505050565b6000816000190483118215151615613fb757613fb761401a565b500290565b600082821015613fce57613fce61401a565b500390565b60005b83811015613fee578181015183820152602001613fd6565b838111156103c05750506000910152565b60006000198214156140135761401361401a565b5060010190565b634e487b7160e01b600052601160045260246000fd5b634e487b7160e01b600052602160045260246000fd5b634e487b7160e01b600052603260045260246000fd5b634e487b7160e01b600052604160045260246000fd5b6001600160a01b0381168114611a5957600080fd5b8015158114611a5957600080fd5b60ff81168114611a5957600080fdfea264697066735822122081bbbc82178125f497a80effda864b1d19a07631f5bd14f065c9bc8e04aca53b64736f6c63430008060033",
    "linkReferences": {}
  },
  "methodIdentifiers": {
    "claimCollateral(address[],uint256[],uint256[])": "59fe66e4",
    "lend(address[],uint256[],uint256[],uint8[],bytes4[],bytes4[],uint8[])": "e50364b2",
    "onERC1155BatchReceived(address,address,uint256[],uint256[],bytes)": "bc197c81",
    "onERC1155Received(address,address,uint256,uint256,bytes)": "f23a6e61",
    "onERC721Received(address,address,uint256,bytes)": "150b7a02",
    "paused()": "5c975abb",
    "rent(address[],uint256[],uint256[],uint8[])": "5de07ca3",
    "rentFee()": "bf2b23ea",
    "returnIt(address[],uint256[],uint256[])": "fb158519",
    "setBeneficiary(address)": "1c31f710",
    "setPaused(bool)": "16c38b3c",
    "setRentFee(uint256)": "76774ea3",
    "stopLending(address[],uint256[],uint256[])": "098130df",
    "supportsInterface(bytes4)": "01ffc9a7"
  },
  "id": 30
}