{
  "abi": [
    {
      "inputs": [
        {
          "internalType": "address",
          "name": "_admin",
          "type": "address"
        }
      ],
      "stateMutability": "nonpayable",
      "type": "constructor"
    },
    {
      "inputs": [
        {
          "internalType": "uint8",
          "name": "_pt",
          "type": "uint8"
        }
      ],
      "name": "getPaymentToken",
      "outputs": [
        {
          "internalType": "address",
          "name": "",
          "type": "address"
        }
      ],
      "stateMutability": "view",
      "type": "function"
    },
    {
      "inputs": [
        {
          "internalType": "uint8",
          "name": "_pt",
          "type": "uint8"
        },
        {
          "internalType": "address",
          "name": "_v",
          "type": "address"
        }
      ],
      "name": "setPaymentToken",
      "outputs": [],
      "stateMutability": "nonpayable",
      "type": "function"
    }
  ],
  "bytecode": {
    "object": "0x608060405234801561001057600080fd5b5060405161031b38038061031b83398101604081905261002f91610054565b600080546001600160a01b0319166001600160a01b0392909216919091179055610084565b60006020828403121561006657600080fd5b81516001600160a01b038116811461007d57600080fd5b9392505050565b610288806100936000396000f3fe608060405234801561001057600080fd5b50600436106100365760003560e01c8063321c6aea1461003b578063c6ee427f14610050575b600080fd5b61004e61004936600461020f565b610098565b005b61007c61005e3660046101ed565b60ff166000908152600160205260409020546001600160a01b031690565b6040516001600160a01b03909116815260200160405180910390f35b60ff82166100ed5760405162461bcd60e51b815260206004820152601860248201527f52654e46543a3a63616e74207365742073656e74696e656c000000000000000060448201526064015b60405180910390fd5b60ff82166000908152600160205260409020546001600160a01b0316156101565760405162461bcd60e51b815260206004820152601f60248201527f52654e46543a3a63616e6e6f742072657365742074686520616464726573730060448201526064016100e4565b6000546001600160a01b031633146101a45760405162461bcd60e51b81526020600482015260116024820152702932a7232a1d1d37b7363c9030b236b4b760791b60448201526064016100e4565b60ff91909116600090815260016020526040902080546001600160a01b0319166001600160a01b03909216919091179055565b803560ff811681146101e857600080fd5b919050565b6000602082840312156101ff57600080fd5b610208826101d7565b9392505050565b6000806040838503121561022257600080fd5b61022b836101d7565b915060208301356001600160a01b038116811461024757600080fd5b80915050925092905056fea26469706673582212201f59e162d9f1c23d406a77c638c3b8d43e753cb2e97ae2a0ceed8590fb6d819764736f6c63430008060033",
    "linkReferences": {}
  },
  "methodIdentifiers": {
    "getPaymentToken(uint8)": "c6ee427f",
    "setPaymentToken(uint8,address)": "321c6aea"
  },
  "id": 31
}