{
  "abi": [
    {
      "inputs": [
        {
          "internalType": "address",
          "name": "_admin",
          "type": "address"
        }
      ],
      "stateMutability": "nonpayable",
      "type": "constructor"
    },
    {
      "inputs": [
        {
          "internalType": "uint8",
          "name": "_pt",
          "type": "uint8"
        }
      ],
      "name": "getPaymentToken",
      "outputs": [
        {
          "internalType": "address",
          "name": "",
          "type": "address"
        }
      ],
      "stateMutability": "view",
      "type": "function"
    },
    {
      "inputs": [
        {
          "internalType": "uint8",
          "name": "_pt",
          "type": "uint8"
        },
        {
          "internalType": "address",
          "name": "_v",
          "type": "address"
        }
      ],
      "name": "setPaymentToken",
      "outputs": [],
      "stateMutability": "nonpayable",
      "type": "function"
    }
  ],
  "bytecode": {
    "object": "0x608060405234801561001057600080fd5b5060405161031e38038061031e83398101604081905261002f91610054565b600080546001600160a01b0319166001600160a01b0392909216919091179055610084565b60006020828403121561006657600080fd5b81516001600160a01b038116811461007d57600080fd5b9392505050565b61028b806100936000396000f3fe608060405234801561001057600080fd5b50600436106100365760003560e01c8063321c6aea1461003b578063c6ee427f14610050575b600080fd5b61004e6100493660046101f0565b610098565b005b61007c61005e366004610233565b60ff166000908152600160205260409020546001600160a01b031690565b6040516001600160a01b03909116815260200160405180910390f35b8160ff166000036100f05760405162461bcd60e51b815260206004820152601860248201527f52654e46543a3a63616e74207365742073656e74696e656c000000000000000060448201526064015b60405180910390fd5b60ff82166000908152600160205260409020546001600160a01b0316156101595760405162461bcd60e51b815260206004820152601f60248201527f52654e46543a3a63616e6e6f742072657365742074686520616464726573730060448201526064016100e7565b6000546001600160a01b031633146101a75760405162461bcd60e51b81526020600482015260116024820152702932a7232a1d1d37b7363c9030b236b4b760791b60448201526064016100e7565b60ff91909116600090815260016020526040902080546001600160a01b0319166001600160a01b03909216919091179055565b803560ff811681146101eb57600080fd5b919050565b6000806040838503121561020357600080fd5b61020c836101da565b915060208301356001600160a01b038116811461022857600080fd5b809150509250929050565b60006020828403121561024557600080fd5b61024e826101da565b939250505056fea2646970667358221220d46e7831e852ed1469663ed950c32c148173e6814985e2afd6bcb06827b2ecfe64736f6c63430008100033",
    "linkReferences": {}
  },
  "methodIdentifiers": {
    "getPaymentToken(uint8)": "c6ee427f",
    "setPaymentToken(uint8,address)": "321c6aea"
  },
  "id": 4
}