{
  "abi": [
    {
      "inputs": [
        {
          "internalType": "contract ISuperfluid",
          "name": "host",
          "type": "address"
        }
      ],
      "stateMutability": "nonpayable",
      "type": "constructor"
    },
    {
      "inputs": [],
      "name": "cfaV1",
      "outputs": [
        {
          "internalType": "contract ISuperfluid",
          "name": "host",
          "type": "address"
        },
        {
          "internalType": "contract IConstantFlowAgreementV1",
          "name": "cfa",
          "type": "address"
        }
      ],
      "stateMutability": "view",
      "type": "function"
    },
    {
      "inputs": [
        {
          "internalType": "address",
          "name": "sender",
          "type": "address"
        },
        {
          "internalType": "address",
          "name": "receiver",
          "type": "address"
        },
        {
          "internalType": "contract ISuperfluidToken",
          "name": "token",
          "type": "address"
        },
        {
          "internalType": "int96",
          "name": "flowRate",
          "type": "int96"
        }
      ],
      "name": "createFlowByOperatorTest",
      "outputs": [],
      "stateMutability": "nonpayable",
      "type": "function"
    },
    {
      "inputs": [
        {
          "internalType": "address",
          "name": "sender",
          "type": "address"
        },
        {
          "internalType": "address",
          "name": "receiver",
          "type": "address"
        },
        {
          "internalType": "contract ISuperfluidToken",
          "name": "token",
          "type": "address"
        }
      ],
      "name": "deleteFlowByOperator",
      "outputs": [],
      "stateMutability": "nonpayable",
      "type": "function"
    },
    {
      "inputs": [],
      "name": "renft",
      "outputs": [
        {
          "internalType": "contract IReNft",
          "name": "",
          "type": "address"
        }
      ],
      "stateMutability": "view",
      "type": "function"
    },
    {
      "inputs": [],
      "name": "resolver",
      "outputs": [
        {
          "internalType": "contract IResolver",
          "name": "",
          "type": "address"
        }
      ],
      "stateMutability": "view",
      "type": "function"
    },
    {
      "inputs": [
        {
          "internalType": "address",
          "name": "sender",
          "type": "address"
        },
        {
          "internalType": "address",
          "name": "receiver",
          "type": "address"
        },
        {
          "internalType": "contract ISuperfluidToken",
          "name": "token",
          "type": "address"
        },
        {
          "internalType": "int96",
          "name": "flowRate",
          "type": "int96"
        }
      ],
      "name": "updateFlowByOperatorTest",
      "outputs": [],
      "stateMutability": "nonpayable",
      "type": "function"
    }
  ],
  "bytecode": {
    "object": "0x608060405234801561001057600080fd5b5060405161082c38038061082c83398101604081905261002f91610169565b600080546001600160a01b03199081167394d8f036a0fbc216bb532d33bdf6564157af0cd7179091556001805490911673945e589a4715d1915e6fe14f08e4887bc40193411790556040805180820182526001600160a01b0383168082529151635b69006f60e11b81527fa9214cc96615e0085d3bb077758db69497dc2dce3b2b1e97bc93c3d18d83efd360048201529091602083019163b6d200de90602401602060405180830381865afa1580156100ec573d6000803e3d6000fd5b505050506040513d601f19601f820116820180604052508101906101109190610169565b6001600160a01b039081169091528151600280546001600160a01b03199081169284169290921790556020909201516003805490931691161790555061018d565b6001600160a01b038116811461016657600080fd5b50565b60006020828403121561017b57600080fd5b815161018681610151565b9392505050565b6106908061019c6000396000f3fe608060405234801561001057600080fd5b50600436106100625760003560e01c806304f3bcec1461006757806380f742fa146100975780638aaf4513146100ac578063a1653c74146100bf578063d3112b2e146100d2578063ef7074901461010c575b600080fd5b60015461007a906001600160a01b031681565b6040516001600160a01b0390911681526020015b60405180910390f35b6100aa6100a53660046103fc565b61011f565b005b6100aa6100ba3660046103fc565b610134565b60005461007a906001600160a01b031681565b6002546003546100ec916001600160a01b03908116911682565b604080516001600160a01b0393841681529290911660208301520161008e565b6100aa61011a36600461045f565b610142565b61012d600285858585610155565b5050505050565b61012d600285858585610184565b61014f60028484846101a9565b50505050565b60408051600081526020810190915260609061017a90879087908790879087906101d5565b9695505050505050565b60408051600081526020810190915260609061017a90879087908790879087906102db565b6040805160008152602081019091526060906101cc908690869086908690610309565b95945050505050565b855460018701546060916001600160a01b03908116916339255d5b91168063354b9590888b8b8a60005b6040519080825280601f01601f191660200182016040528015610229576020820181803683370190505b5060405160240161023e959493929190610510565b60408051808303601f1901815291815260208201805160e094851b6001600160e01b03909116179052519185901b6001600160e01b031916825261028993925090879060040161054e565b6000604051808303816000875af11580156102a8573d6000803e3d6000fd5b505050506040513d6000823e601f3d908101601f191682016040526102d09190810190610584565b979650505050505050565b855460018701546060916001600160a01b03908116916339255d5b9116806394229ecb888b8b8a60006101ff565b845460018601546040805160008152602081019091526060926001600160a01b03908116926339255d5b929116908190634c8b181f906103529089908c908c9060448101610626565b60408051808303601f1901815291815260208201805160e094851b6001600160e01b03909116179052519185901b6001600160e01b031916825261039d93925090879060040161054e565b6000604051808303816000875af11580156103bc573d6000803e3d6000fd5b505050506040513d6000823e601f3d908101601f1916820160405261017a9190810190610584565b6001600160a01b03811681146103f957600080fd5b50565b6000806000806080858703121561041257600080fd5b843561041d816103e4565b9350602085013561042d816103e4565b9250604085013561043d816103e4565b91506060850135600b81900b811461045457600080fd5b939692955090935050565b60008060006060848603121561047457600080fd5b833561047f816103e4565b9250602084013561048f816103e4565b9150604084013561049f816103e4565b809150509250925092565b634e487b7160e01b600052604160045260246000fd5b60005b838110156104db5781810151838201526020016104c3565b50506000910152565b600081518084526104fc8160208601602086016104c0565b601f01601f19169290920160200192915050565b6001600160a01b038681168252858116602083015284166040820152600b83900b606082015260a0608082018190526000906102d0908301846104e4565b6001600160a01b0384168152606060208201819052600090610572908301856104e4565b828103604084015261017a81856104e4565b60006020828403121561059657600080fd5b815167ffffffffffffffff808211156105ae57600080fd5b818401915084601f8301126105c257600080fd5b8151818111156105d4576105d46104aa565b604051601f8201601f19908116603f011681019083821181831017156105fc576105fc6104aa565b8160405282815287602084870101111561061557600080fd5b6102d08360208301602088016104c0565b6001600160a01b03858116825284811660208301528316604082015260806060820181905260009061017a908301846104e456fea2646970667358221220b6e6e834fb3f0b273bbbad7b0ed162045385641b8578283ce4484437712bc02364736f6c63430008100033",
    "linkReferences": {}
  },
  "methodIdentifiers": {
    "cfaV1()": "d3112b2e",
    "createFlowByOperatorTest(address,address,address,int96)": "8aaf4513",
    "deleteFlowByOperator(address,address,address)": "ef707490",
    "renft()": "a1653c74",
    "resolver()": "04f3bcec",
    "updateFlowByOperatorTest(address,address,address,int96)": "80f742fa"
  },
  "id": 0
}